:020000040800F2
:100000000050002005070008E9060008EB0600087C
:10001000ED060008EF060008F106000800000000E9
:10002000000000000000000000000000F3060008CF
:10003000F506000800000000F7060008F9060008B1
:100040004D0700084D0700084D0700084D07000840
:100050004D0700084D0700084D0700084D07000830
:100060004D0700084D0700084D0700084D07000820
:100070004D0700084D0700084D0700084D07000810
:100080004D0700084D0700084D0700084D07000800
:100090004D0700084D0700084D0700084D070008F0
:1000A0004D0700084D0700084D0700084D070008E0
:1000B0004D0700084D0700084D0700084D070008D0
:1000C0004D0700084D0700084D0700084D070008C0
:1000D0004D0700084D0700084D0700084D070008B0
:1000E0004D0700084D0700084D07000800000000FC
:1000F0000000000000000000000000000000000000
:0C01000000000000000000005FF808F1A3
:10010C0010B5054C237833B9044B13B10448AFF345
:10011C0000800123237010BD3C040020000000006F
:10012C00D815000808B5034B1BB103490348AFF3BE
:10013C00008008BD0000000040040020D815000815
:10014C0000B583B0104B1A8000F022FB0F4B5A699C
:10015C0042F001025A615B6903F001030193019BB8
:10016C000B480C4B036000234360402282608022CA
:10017C00C2600361436183614FF48053C36100F03B
:10018C00B3FB03B05DF804FB5804002000100240E0
:10019C005C0400200800024010B50A46064C074BD0
:1001AC001B880146204600F0D5FB4FF0FF320021A2
:1001BC00204600F0F9FB10BD5C0400205804002020
:1001CC0010B586B0144B9A6942F008029A619B698B
:1001DC0003F008030193019B002302930393049300
:1001EC0005934FF440730293112303930323059358
:1001FC000A4C02A9204600F0EDFC01224FF480715C
:10020C00204600F0F9FD01224FF40071204600F069
:10021C00F3FD06B010BD00BF00100240000C014001
:10022C0010B50D4C01224FF40071204600F0E4FD96
:10023C0001224FF48071204600F0DEFD00224FF4C5
:10024C000071204600F0D8FD00224FF4807120464A
:10025C0000F0D2FD10BD00BF000C014010B50A4CDF
:10026C0000224FF40071204600F0C6FD01224FF42D
:10027C008071204600F0C0FD01224FF40071204631
:10028C0000F0BAFD10BD00BF000C014070B5064671
:10029C00002416E080222241124D32404FF40071AE
:1002AC00284600F0A9FD01224FF48071284600F089
:1002BC00A3FD00224FF48071284600F09DFD01340F
:1002CC00E4B2072CE6D9074C01224FF4807120468A
:1002DC0000F092FD00224FF48071204600F08CFD5E
:1002EC0070BD00BF000C014010B50446FFF798FF2D
:1002FC007820FFF7CBFF0020FFF7C8FF2046FFF761
:10030C00C5FFFFF7ABFF10BD10B50446FFF788FF24
:10031C007820FFF7BBFF4020FFF7B8FF2046FFF720
:10032C00B5FFFFF79BFF10BD10B50C4640F0B000B9
:10033C00FFF7DAFF200940F01000FFF7D5FF04F0BB
:10034C000F00FFF7D1FF10BD38B5002509E00020E4
:10035C00FFF7DAFF0134E4B214F0800FF7D0013567
:10036C00EDB2072D05D800212846FFF7DDFF00244C
:10037C00F2E738BDF8B51546461E7600F6B24F1EAC
:10038C00FF00FFB239463046FFF7CEFF002409E0EC
:10039C00A5F120030F4A02EB0313185DFFF7B4FF1E
:1003AC000134E4B2072CF3D9701C3946C0B2FFF704
:1003BC00BBFF00240BE0A5F1200304F10802054962
:1003CC0001EB0313985CFFF79FFF0134E4B2072C99
:1003DC00F1D9F8BDF0150008F8B507460E461546DC
:1003EC00002406E0A119C9B23846FFF7C3FF013457
:1003FC00E4B22A5D002AF5D1F8BD0246012002E0E4
:10040C0002FB00F019464B1E0029F9D170472DE96B
:10041C00F04180460F4616461D46002407E0E119C0
:10042C003732C9B24046FFF7A5FF0134E4B2AC4203
:10043C0011D2291B01391020FFF7DFFFB6FBF0F2B8
:10044C0002F00F02092AEAD8E1193032C9B240464B
:10045C00FFF790FFE9E7BDE8F08108B5002204E062
:10046C000133B3F57A7FFBD30132B2F57A7F01D237
:10047C000023F6E7FFF7A4FEAE20FFF735FFD520EB
:10048C00FFF732FF8020FFF72FFFA820FFF72CFF8C
:10049C003F20FFF729FFD320FFF726FF0020FFF7AF
:1004AC0023FF4020FFF720FFA120FFF71DFFC820EE
:1004BC00FFF71AFFDA20FFF717FF1220FFF714FFE0
:1004CC008120FFF711FFCF20FFF70EFFD920FFF798
:1004DC000BFFF120FFF708FFDB20FFF705FF3020B3
:1004EC00FFF702FFA420FFF7FFFEA620FFF7FCFE9C
:1004FC008D20FFF7F9FE1420FFF7F6FEAF20FFF773
:10050C00F3FEFFF721FF08BD72B6FEE700B591B010
:10051C002822002106A800F097FF002301930293E4
:10052C000393049305930223069301230A93102348
:10053C000B9306A800F07CFC68B90F2301930021F3
:10054C00029103910491059101A800F0A3FE20B93A
:10055C0011B05DF804FBFFF7D7FFFFF7D5FF0000E4
:10056C0080B500F015F9FFF778FF4C4F4C4E042284
:10057C0031463846FFF7E4FDFFF7C8FF494A012131
:10058C000846FFF729FF484A01210320FFF724FF03
:10059C0008233A4619460120FFF739FF0823324653
:1005AC0019460320FFF733FF3C4C22780132D2B2BC
:1005BC002270637801336370A3780133A370E378FE
:1005CC000133E370022301211846FFF720FF0223B9
:1005DC00627804211846FFF71AFF0223A27807213C
:1005EC001846FFF714FF0223E2780A211846FFF79A
:1005FC000EFF2B4D02232A7801210420FFF707FF61
:10060C0002236A7804210846FFF701FF0223AA7827
:10061C0007210420FFF7FBFE0223EA780A210420BD
:10062C00FFF7F5FE012000F0D7F8042231463846DA
:10063C00FFF7B2FD0223227801211846FFF7E7FEEF
:10064C000223627804211846FFF7E1FE0223A27808
:10065C0007211846FFF7DBFE0223E2780A21184631
:10066C00FFF7D5FE02232A7801210420FFF7CFFEE5
:10067C0002236A7804210846FFF7C9FE0223AA78F0
:10068C0007210420FFF7C3FE0223EA780A21042085
:10069C00FFF7BDFE012000F09FF885E70000002069
:1006AC00A0040020E01B0008E81B000882B00A4BE5
:1006BC009A6942F001029A619A6902F00102009271
:1006CC00009ADA6942F08052DA61DB6903F08053F8
:1006DC000193019B02B0704700100240FEE7FEE759
:1006EC00FEE7FEE7FEE770477047704708B500F07D
:1006FC0061F808BD70470000FFF7FCFF0B480C4980
:10070C000C4A002302E0D458C4500433C4188C4261
:10071C00F9D3094A094C002301E013600432A242C8
:10072C00FBD300F06DFEFFF71BFF704700000020AD
:10073C003C040020241C00083C040020AC040020D5
:10074C00FEE7000010B504460E4B18784FF47A7390
:10075C00B3FBF0F30C4A1068B0FBF3F000F09AF81E
:10076C0068B90F2C01D901200AE0002221464FF074
:10077C00FF3000F057F8054B1C60002000E0012012
:10078C0010BD00BF08000020040000200C00002059
:10079C0008B5074A136843F010031360032000F0F8
:1007AC002FF80F20FFF7CEFFFFF780FF002008BDCA
:1007BC0000200240034A1168034B1B780B44136062
:1007CC00704700BFA404002008000020014B1868EB
:1007DC00704700BFA404002038B50446FFF7F6FFAD
:1007EC000546B4F1FF3F02D0044B1B781C44FFF7C5
:1007FC00EDFF401BA042FAD338BD00BF080000201B
:10080C00074AD36823F4E0631B041B0C000200F4BA
:10081C00E060034343F0BF6343F40033D36070479D
:10082C0000ED00E000B5194BDB68C3F30223C3F104
:10083C00070CBCF1040F28BF4FF0040C03F1040E9D
:10084C00BEF1060F18D9033B4FF0FF3E0EFA0CFC1D
:10085C0021EA0C0199400EFA03F322EA030319432F
:10086C0000280BDB0901C9B200F1604000F56140C2
:10087C0080F800135DF804FB0023E5E700F00F009F
:10088C000901C9B2024B1954F4E700BF00ED00E0B6
:10089C0014ED00E00138B0F1807F0BD24FF0E02373
:1008AC005861054AF02182F8231000209861072234
:1008BC001A6170470120704700ED00E030B401244C
:1008CC00056CAC40C56B6C60046863604368102BAE
:1008DC0005D0036899600368DA6030BC7047036820
:1008EC009A600368D960F8E760B310B402460168F7
:1008FC00154B0B441548A0FB03031B099B00136409
:10090C00134BD363022382F82130086820F47F5004
:10091C0020F03000536894682343D468234314694F
:10092C0023435469234394692343D46923430343E6
:10093C000B6000209063012382F8213082F82000A4
:10094C0010BC704701207047F8FFFDBFCDCCCCCC5C
:10095C000000024070B5044690F82000012820D019
:10096C00012084F8200094F82100C0B2012804D0A2
:10097C00002384F82030022070BD022084F821006E
:10098C000025A5632668306820F001003060204601
:10099C00FFF794FF2268136843F0010313602846A5
:1009AC00EAE70220E8E700002DE9F041044690F860
:1009BC002130DBB2022B07D004238363002380F8A1
:1009CC0020300120BDE8F0810F46154603681A68F7
:1009DC0012F0200F15D1E1B97C4A934231D0143278
:1009EC00934233D01432934232D01432934232D0E9
:1009FC001432934232D01432934207D04FF0007627
:100A0C0020E04FF4807383630120DBE74FF4001682
:100A1C0018E06E4A934224D01432934223D01432FD
:100A2C00934222D01432934222D01432934222D0D9
:100A3C001432934202D04FF0806603E04FF48006EC
:100A4C0000E00226FFF7C2FE804620E02026F9E7F0
:100A5C004FF40076F6E74FF40056F3E74FF4003608
:100A6C00F0E70426EEE74026ECE74FF48066E9E772
:100A7C004FF48046E6E74FF48026E3E74FF400039B
:100A8C0000E008231A4229D1B5F1FF3F35D1504B74
:100A9C001B68334243D14E4B1A6823684B498B4237
:100AAC00EFD014318B420ED014318B420DD0143157
:100ABC008B420DD014318B420DD014318B42DDD0D2
:100ACC004FF00063DEE78023DCE74FF40063D9E7E7
:100ADC004FF40043D6E74FF40023D3E7236CE26BCB
:100AEC00012000FA03F35360A36B0343A36384F860
:100AFC002100002384F8203064E72DB1FFF766FE57
:100B0C00A0EB0800A842C2D9A36B43F02003A36357
:100B1C00012084F82100002384F8203052E76FBBB9
:100B2C0023682A4A934214D0143293421BD01432B5
:100B3C0093421AD0143293421AD0143293421AD0E0
:100B4C001432934202D04FF0007203E04FF40012C3
:100B5C0000E002221E4B5A60012384F82130002051
:100B6C0084F820002EE72022F4E74FF40072F1E71E
:100B7C004FF40052EEE74FF40032EBE72368134AD0
:100B8C00934214D01432934215D01432934214D0A1
:100B9C001432934214D01432934214D01432934230
:100BAC0002D04FF0806203E04FF4800200E0042298
:100BBC00074B5A60D3E74022FAE74FF48062F7E71D
:100BCC004FF48042F4E74FF48022F1E70800024032
:100BDC000000024070B582B00024A446A6E0804D0F
:100BEC00AA4210D007D97F4DAA420CD005F580350A
:100BFC00AA4208D013E0A5F58015AA4203D005F54A
:100C0C007025AA4207D18A68002A58D0012A51D0EF
:100C1C004361082403E0A5F58015AA42F3D0BEF188
:100C2C00FF0F4ED80646BEF1FF0F4CD84FEA8C0290
:100C3C0033680F25954023EA050304FA02F21343A7
:100C4C0033604B6813F0805F6ED0674B9A6942F04B
:100C5C0001029A619B6903F001030193019B4FEA26
:100C6C009C02951C614B53F825600CF003039D000E
:100C7C000F23AB4026EA03065D4B984229D003F5BF
:100C8C008063984200F08E8003F58063984200F0F8
:100C9C008B8003F58063984219D004231AE0CC684A
:100CAC00BDE7CC680434BAE7CC680834B7E7CC6845
:100CBC000C34B4E703610824B1E70024AFE7042443
:100CCC00ADE7061DAFE7ACF108029200B0E70323D5
:100CDC0000E00023AB4033430232444D45F8223050
:100CEC004B6813F4801F61D0424A936843EA0E03A9
:100CFC0093604B6813F4001F5ED03E4AD36843EAFE
:100D0C000E03D3604B6813F4003F5BD0394A536831
:100D1C0043EA0E0353604B6813F4803F58D0354AB6
:100D2C00136843EA0E0313600CF1010C0A6832FAE3
:100D3C000CF353D0012303FA0CF302EA030E33EA4B
:100D4C000202F1D14A68122A3FF649AF122A3FF645
:100D5C0066AF01A555F822F0130C0008AB0C000887
:100D6C00B50C0008C70C00082B0C00082B0C000855
:100D7C002B0C00082B0C00082B0C00082B0C00086B
:100D8C002B0C00082B0C00082B0C00082B0C00085B
:100D9C002B0C00082B0C00082B0C0008AF0C0008C7
:100DAC00BB0C0008012395E7022393E7114A9368D3
:100DBC0023EA0E0393609CE70E4AD36823EA0E03E2
:100DCC00D3609FE70B4A536823EA0E035360A2E7F4
:100DDC00084A136823EA0E031360A5E702B070BD3E
:100DEC0000002210000031100010024000000140F1
:100DFC0000080140000401400AB101617047090478
:100E0C000161704782B0084B1B68084AA2FB0323A0
:100E1C005B0A00FB03F3019300BF019B5A1E019276
:100E2C00002BF9D102B0704704000020D34D6210A2
:100E3C00002800F0F18170B582B00446036813F00D
:100E4C00010F2CD0994B5B6803F00C03042B1DD0C5
:100E5C00964B5B6803F00C03082B12D06368B3F558
:100E6C00803F41D0002B55D103F1804303F504336F
:100E7C001A6822F480321A601A6822F480221A60EE
:100E8C0037E08A4B5B6813F4803FE7D0874B1B68D5
:100E9C0013F4003F03D06368002B00F0BF8123687C
:100EAC0013F0020F75D0814B5B6813F00C0F5FD001
:100EBC007E4B5B6803F00C03082B54D02369002B8A
:100ECC0000F08A807A4B01221A60FFF77FFC0546FE
:100EDC00764B1B6813F0020F75D1FFF777FC401BA4
:100EEC000228F5D903209EE1704A136843F480333D
:100EFC001360636843B3FFF769FC05466B4B1B68D3
:100F0C0013F4003FCBD1FFF761FC401B6428F5D9EB
:100F1C00032088E1B3F5A02F09D0644B1A6822F4A2
:100F2C0080321A601A6822F480221A60E1E703F119
:100F3C008043A3F53C331A6842F480221A601A6885
:100F4C0042F480321A60D4E7FFF740FC0546574B59
:100F5C001B6813F4003FA2D0FFF738FC401B642839
:100F6C00F5D903205FE1514B5B6813F4803FA5D1A9
:100F7C004E4B1B6813F0020F03D02369012B40F07A
:100F8C004F814A4A136823F0F803616943EAC103AD
:100F9C001360236813F0080F33D0A369002B5CD0C7
:100FAC00434B0122C3F88024FFF710FC05463F4B4E
:100FBC005B6A13F0020F21D1FFF708FC401B0228DB
:100FCC00F5D903202FE1394A136823F0F80361693E
:100FDC0043EAC1031360DCE7354B00221A60FFF7CC
:100FEC00F5FB0546314B1B6813F0020FD1D0FFF710
:100FFC00EDFB401B0228F5D9032014E10120FFF77B
:10100C0001FF236813F0040F00F09680274BDB6977
:10101C0013F0805F34D1254BDA6942F08052DA61EB
:10102C00DB6903F080530193019B0125214B1B6865
:10103C0013F4807F26D0E368012B3DD0002B53D1D5
:10104C0003F1804303F504331A6A22F001021A6299
:10105C001A6A22F004021A6233E0154B0022C3F81C
:10106C008024FFF7B3FB0546104B5B6A13F0020FAD
:10107C00C7D0FFF7ABFB401B0228F5D90320D2E009
:10108C000025D3E70B4A136843F480731360FFF712
:10109C009DFB0646074B1B6813F4807FCBD1FFF7F3
:1010AC0095FB801B6428F5D90320BCE0001002409E
:1010BC0000004242007000405F4A136A43F0010393
:1010CC001362E36833B3FFF781FB06465A4B1B6A86
:1010DC0013F0020F2FD1FFF779FB801B41F28833FD
:1010EC009842F3D903209EE0052B09D0524B1A6A83
:1010FC0022F001021A621A6A22F004021A62E0E774
:10110C004D4B1A6A42F004021A621A6A42F001024A
:10111C001A62D6E7FFF75AFB0646474B1B6A13F0D9
:10112C00020F08D0FFF752FB801B41F28833984224
:10113C00F3D9032077E0E5B9E369002B72D03E4A7E
:10114C00526802F00C02082A56D0022B17D03B4BE7
:10115C0000221A66FFF73AFB0446374B1B6813F064
:10116C00007F47D0FFF732FB001B0228F5D9032084
:10117C0059E0314AD36923F08053D361DCE72F4B1C
:10118C0000221A66FFF722FB05462B4B1B6813F057
:10119C00007F06D0FFF71AFB401B0228F5D903206D
:1011AC0041E0236AB3F5803F1AD023494B6823F4FE
:1011BC007413226A606A024313434B601F4B012273
:1011CC001A66FFF703FB04461B4B1B6813F0007FEA
:1011DC000ED1FFF7FBFA001B0228F5D9032022E001
:1011EC00154A536823F40033A1680B435360DCE7C2
:1011FC00002018E0002016E0012B16D00E4B5B6887
:10120C0003F48031226A914211D103F47013626AA3
:10121C0093420ED1002006E001207047012002E02D
:10122C00012000E0002002B070BD0120FBE701208E
:10123C00F9E70120F7E700BF00100240000042422E
:10124C000F4B5B6803F00C02082A01D00D48704765
:10125C00C3F383420C49885C13F4803F0BD0084BDA
:10126C005B68C3F34043094AD35C064A02FB00F0B7
:10127C00B0FBF3F07047064B03FB00F0704700BF68
:10128C000010024000127A00001C0008101C00081C
:10129C0000093D00002800F0A08070B50D46044602
:1012AC00524B1B6803F007038B420BD24F4A136857
:1012BC0023F007030B431360136803F007038B42FF
:1012CC0040F08D80236813F0020F17D013F0040F39
:1012DC0004D0474A536843F4E0635360236813F027
:1012EC00080F04D0424A536843F460535360404A99
:1012FC00536823F0F003A1680B435360236813F089
:10130C00010F31D06368012B20D0022B25D0384A35
:10131C00126812F0020F64D035494A6822F00302B9
:10132C0013434B60FFF752FA0646314B5B6803F0F0
:10133C000C036268B3EB820F16D0FFF747FA801BE1
:10134C0041F288339842F0D9032045E0284A1268CC
:10135C0012F4003FE0D101203EE0254A126812F061
:10136C00007FD9D1012037E0204B1B6803F0070325
:10137C00AB420AD91D4A136823F007032B431360B1
:10138C00136803F00703AB422DD1236813F0040F4D
:10139C0006D0174A536823F4E063E1680B435360AB
:1013AC00236813F0080F07D0114A536823F46053D5
:1013BC00216943EAC1035360FFF742FF0C4B5B68A2
:1013CC00C3F303130B4AD35CD8400B4B18600B4B85
:1013DC001868FFF7B7F9002070BD01207047012095
:1013EC00FAE70120F8E70120F6E700BF00200240F1
:1013FC0000100240F01B0008040000200C0000202C
:10140C0070B50D4E0D4D761BB61006D0002455F858
:10141C00043B01349847A642F9D1094E094D00F01E
:10142C00D5F8761BB61006D0002455F8043B0134D1
:10143C009847A642F9D170BD181C0008181C00086A
:10144C00201C0008181C0008830730B548D0541E17
:10145C00002A3FD00346CAB201E0013C3AD303F85C
:10146C00012B9D07F9D1032C2DD9CDB245EA0525C9
:10147C000F2C45EA054536D9A4F1100222F00F0CC9
:10148C0003F1200EE6444FEA121C03F1100242E96C
:10149C00045542E9025510327245F8D10CF10102A3
:1014AC0014F00C0F03EB021204F00F0C13D0ACF180
:1014BC00040323F003030433134442F8045B934204
:1014CC00FBD10CF003042CB1CAB21C4403F8012B61
:1014DC009C42FBD130BD64461346002CF4D1F9E795
:1014EC0003461446BFE71A46A446E0E7024B13B185
:1014FC00024800F005B870470000000019150008FC
:10150C00002301461A46184600F01AB838B5084BA5
:10151C00084D5B1B9C1007D0043B1D44013C55F847
:10152C0004399847002CF9D1BDE8384000F054B884
:10153C00241C0008201C0008704700BF704700BF27
:10154C002DE9F047DFF87CA00646DAF80000984653
:10155C000F469146FFF7F0FF1B4B1B68D3F8484131
:10156C0024B365681F2D26DC5EB96B1C0235DAF8D6
:10157C000000636044F82570FFF7E0FF0020BDE831
:10158C00F087012304EB8501C1F88890D4F88821F9
:10159C00AB401A43022EC4F88821C1F80881E4D16B
:1015AC00D4F88C211343C4F88C31DEE703F5A67410
:1015BC00C3F84841D5E7DAF80000FFF7BFFF4FF05A
:1015CC00FF30DCE738040020141C0008F8B500BF1D
:1015DC00F8BC08BC9E467047F8B500BFF8BC08BC08
:0415EC009E46704760
:1015F00000000000000000000000000000000000EB
:10160000000000F80000000000000033300000007F
:1016100000100C06100C0600000000000000000086
:1016200040C07840C0784000043F04043F040400F8
:10163000007088FC08300000001820FF211E000008
:10164000F008F000E018000000211C031E211E001D
:1016500000F00888700000001E21232419272110A3
:1016600010160E0000000000000000000000000046
:10167000000000E0180402000000000718204000ED
:1016800000020418E00000000040201807000000DD
:10169000404080F0804040000202010F0102020041
:1016A000000000F0000000000101011F0101010025
:1016B000000000000000000080B07000000000008A
:1016C0000000000000000000000101010101010113
:1016D00000000000000000000030300000000000AA
:1016E000000000008060180400601806010000007F
:1016F00000E010080810E000000F102020100F007C
:10170000001010F8000000000020203F2020000002
:10171000007008080888700000302824222130005A
:1017200000300888884830000018202020110E0062
:101730000000C02010F8000000070424243F24000B
:1017400000F80888880808000019212020110E00E0
:1017500000E0108888180000000F112020110E00F2
:1017600000380808C83808000000003F00000000EA
:101770000070880808887000001C222121221C00AB
:1017800000E010080810E0000000312222110F00D4
:10179000000000C0C0000000000000303000000069
:1017A00000000080000000000000806000000000D9
:1017B00000008040201008000001020408102000F2
:1017C000404040404040400004040404040404003D
:1017D00000081020408000000020100804020100D2
:1017E000007048080808F0000000003036010000D2
:1017F000C030C828E810E0000718272423140B0085
:101800000000C038E0000000203C230202273820FE
:1018100008F8888888700000203F202020110E00E2
:10182000C0300808080838000718202020100800D9
:1018300008F808080810E000203F202020100F00C2
:1018400008F88888E8081000203F2020232018008E
:1018500008F88888E8081000203F200003000000F6
:10186000C03008080838000007182020221E020097
:1018700008F808000008F808203F210101213F2056
:10188000000808F8080800000020203F2020000081
:1018900000000808F8080800C08080807F00000071
:1018A00008F888C028180800203F200126382000AA
:1018B00008F8080000000000203F20202020300011
:1018C00008F8F800F8F80800203F003F003F20002B
:1018D00008F830C00008F808203F200007183F0033
:1018E000E01008080810E0000F10202020100F0062
:1018F00008F808080808F000203F21010101000055
:10190000E01008080810E0000F18242438504F0099
:1019100008F8888888887000203F2000030C302059
:1019200000708808080838000038202121221C0097
:10193000180808F8080818000000203F20000000E0
:1019400008F808000008F808001F202020201F00C9
:101950000878880000C83808000007380E01000029
:10196000F80800F80008F800033C0700073C0300F3
:10197000081868808068180820302C03032C302059
:101980000838C800C83808000000203F20000000C8
:1019900010080808C8380800203826212020180020
:1019A000000000FE020202000000007F40404000F4
:1019B000000C30C000000000000000010638C0002C
:1019C00000020202FE000000004040407F000000D4
:1019D00000000402020204000000000000000000F9
:1019E00000000000000000008080808080808080F7
:1019F00000020204000000000000000000000000DF
:101A000000008080808000000019242222223F20D4
:101A100008F8008080000000003F112020110E0017
:101A20000000008080800000000E112020201100A6
:101A3000000000808088F800000E112020103F2058
:101A40000000808080800000001F222222221300DC
:101A5000008080F0888888180020203F2020000027
:101A60000000808080808000006B949494936000DC
:101A700008F8008080800000203F210000203F20E7
:101A800000809898000000000020203F20200000E7
:101A9000000000809898000000C08080807F0000D7
:101AA00008F8000080808000203F24022D302000B4
:101AB000000808F8000000000020203F202000005F
:101AC0008080808080808000203F20003F20003F79
:101AD0008080008080800000203F210000203F2087
:101AE0000000808080800000001F202020201F0038
:101AF000808000808000000080FFA12020110E0067
:101B00000000008080808000000E112020A0FF8057
:101B1000808080008080800020203F212000010004
:101B20000000808080808000003324242424190059
:101B3000008080E0808000000000001F2020000066
:101B40008080000000808000001F202020103F20A7
:101B5000808080000080808000010E300806010037
:101B600080800080008080800F300C030C300F00DC
:101B700000808000808080000020312E0E31200007
:101B8000808080000080808080818E701806010037
:101B900000808080808080000021302C2221300055
:101BA00000000000807C020200000000003F404076
:101BB00000000000FF00000000000000FF00000027
:101BC0000002027C800000000040403F0000000056
:101BD00000060101020204040000000000000000F1
:101BE000446174614100000044617461420000007E
:101BF00000000000000000000102030406070809BD
:101C000002030405060708090A0B0C0D0E0F10103D
:081C1000010200001000002099
:081C1800F91400083101000875
:041C20000D010008AA
:101C2400010203040024F40001000000100000007D
:101C340000000000FC02002064030020CC0300200C
:101C44000000000000000000000000000000000090
:101C54000000000000000000000000000000000080
:101C64000000000000000000000000000000000070
:101C74000000000000000000000000000000000060
:101C84000000000000000000000000000000000050
:101C94000000000000000000000000000000000040
:101CA4000000000000000000000000000000000030
:101CB4000000000000000000000000000000000020
:101CC4000000000000000000000000000000000010
:101CD40000000000000000000100000000000000FF
:101CE4000E33CDAB34126DE6ECDE05000B000000C4
:101CF40000000000000000000000000000000000E0
:101D040000000000000000000000000000000000CF
:101D140000000000000000000000000000000000BF
:101D240000000000000000000000000000000000AF
:0C2054000000000000000000A8040020B4
:0400000508000705E3
:00000001FF
