:020000040800F2
:1000000000500020490600082D0600082F060008B1
:10001000310600083306000835060008000000001D
:10002000000000000000000000000000370600088B
:1000300039060008000000003B0600083D060008E5
:100040009106000891060008910600089106000834
:100050009106000891060008910600089106000824
:100060009106000891060008910600089106000814
:100070009106000891060008910600089106000804
:1000800091060008910600089106000891060008F4
:1000900091060008910600089106000891060008E4
:1000A00091060008910600089106000891060008D4
:1000B00091060008910600089106000891060008C4
:1000C00091060008910600089106000891060008B4
:1000D00091060008910600089106000891060008A4
:1000E0009106000891060008910600080000000033
:1000F0000000000000000000000000000000000000
:0C01000000000000000000005FF808F1A3
:10010C0010B5054C237833B9044B13B10448AFF345
:10011C0000800123237010BD3C040020000000006F
:10012C001C19000808B5034B1BB103490348AFF376
:10013C00008008BD00000000400400201C190008CD
:10014C0010B586B0144B9A6942F008029A619B690B
:10015C0003F008030193019B002302930393049380
:10016C0005934FF4407302931123039303230593D8
:10017C000A4C02A9204600F0C1FD01224FF4807107
:10018C00204600F0CDFE01224FF40071204600F015
:10019C00C7FE06B010BD00BF00100240000C0140AD
:1001AC0010B50D4C01224FF40071204600F0B8FE42
:1001BC0001224FF48071204600F0B2FE00224FF471
:1001CC000071204600F0ACFE00224FF480712046F6
:1001DC0000F0A6FE10BD00BF000C014010B50A4C8B
:1001EC0000224FF40071204600F09AFE01224FF4D9
:1001FC008071204600F094FE01224FF400712046DD
:10020C0000F08EFE10BD00BF000C014070B506461C
:10021C00002416E080222241124D32404FF400712E
:10022C00284600F07DFE01224FF48071284600F034
:10023C0077FE00224FF48071284600F071FE0134E5
:10024C00E4B2072CE6D9074C01224FF4807120460A
:10025C0000F066FE00224FF48071204600F060FE34
:10026C0070BD00BF000C014010B50446FFF798FFAD
:10027C007820FFF7CBFF0020FFF7C8FF2046FFF7E1
:10028C00C5FFFFF7ABFF10BD10B50446FFF788FFA5
:10029C007820FFF7BBFF4020FFF7B8FF2046FFF7A1
:1002AC00B5FFFFF79BFF10BD10B50C4640F0B0003A
:1002BC00FFF7DAFF200940F01000FFF7D5FF04F03C
:1002CC000F00FFF7D1FF10BD38B5002509E0002065
:1002DC00FFF7DAFF0134E4B214F0800FF7D00135E8
:1002EC00EDB2072D05D800212846FFF7DDFF0024CD
:1002FC00F2E738BDF8B51546461E7600F6B24F1E2D
:10030C00FF00FFB239463046FFF7CEFF002409E06C
:10031C00A5F120030F4A02EB0313185DFFF7B4FF9E
:10032C000134E4B2072CF3D9701C3946C0B2FFF784
:10033C00BBFF00240BE0A5F1200304F108020549E2
:10034C0001EB0313985CFFF79FFF0134E4B2072C19
:10035C00F1D9F8BD341900080246012002E002FB75
:10036C0000F019464B1E0029F9D170472DE9F843CE
:10037C008146884617461E46002419E004EB080502
:10038C00EDB2311B01390A20FFF7E6FFB7FBF0F0A5
:10039C00094AA2FB0032D20802EB8202A0EB420215
:1003AC003032D2B229464846FFF7A4FF0134E4B2FA
:1003BC00B442E3D3BDE8F883CDCCCCCC08B5002255
:1003CC0004E00133B3F57A7FFBD30132B2F57A7FC7
:1003DC0001D20023F6E7FFF7B3FEAE20FFF744FF90
:1003EC00D520FFF741FF8020FFF73EFFA820FFF745
:1003FC003BFF3F20FFF738FFD320FFF735FF0020EE
:10040C00FFF732FF4020FFF72FFFA120FFF72CFF53
:10041C00C820FFF729FFDA20FFF726FF1220FFF78D
:10042C0023FF8120FFF720FFCF20FFF71DFFD920EE
:10043C00FFF71AFFF120FFF717FFDB20FFF714FF80
:10044C003020FFF711FFA420FFF70EFFA620FFF7C7
:10045C000BFF8D20FFF708FF1420FFF705FFAF20DF
:10046C00FFF702FFFFF730FF08BD000082B0064B1C
:10047C009A6942F004029A619B6903F004030193A8
:10048C00019B02B0704700BF0010024072B6FEE73D
:10049C0000B585B000230193029303930F48104AD3
:1004AC0002608360037303754FF46022C261436082
:1004BC000123036100F0C0FA60B90023019301220B
:1004CC000292039301A9054800F02CF920B905B05C
:1004DC005DF804FBFFF7DAFFFFF7D8FF58040020A4
:1004EC000024014000B595B0282200210DEB02003C
:1004FC0001F04CF900230593069307930893099395
:10050C00019302930393049302230A9301230E9302
:10051C0010230F930AA800F01FFDA8B90F23059311
:10052C000021069107910891099105A800F046FF5A
:10053C0060B9022301930023039301A801F00AF888
:10054C0030B915B05DF804FBFFF7A0FFFFF79EFF75
:10055C00FFF79CFF08B500F0BDF8FFF72FFFFFF782
:10056C00C1FFFFF783FFFFF793FF084800F0E8FA9D
:10057C00064C204600F0BCF9204600F0CFF80246AD
:10058C00042301210846FFF7F1FEF1E7580400208F
:10059C0082B00A4B9A6942F001029A619A6902F0A0
:1005AC0001020092009ADA6942F08052DA61DB694A
:1005BC0003F080530193019B02B07047001002407E
:1005CC0000B587B00023029303930493059302684C
:1005DC00114B9A4202D007B05DF804FB03F56C4353
:1005EC009A6942F400729A619A6902F4007200925C
:1005FC00009A9A6942F004029A619B6903F0040321
:10060C000193019B012302930323039302A9034843
:10061C0000F074FBDFE700BF00240140000801403C
:10062C00FEE7FEE7FEE7FEE7FEE770477047704720
:10063C0008B500F061F808BD70470000FFF7FCFF3B
:10064C000B480C490C4A002302E0D458C450043324
:10065C00C4188C42F9D3094A094C002301E01360F9
:10066C000432A242FBD301F06DF8FFF773FF704721
:10067C00000000203C040020741F00083C040020F3
:10068C0090040020FEE7000010B504460E4B1878CD
:10069C004FF47A73B3FBF0F30C4A1068B0FBF3F031
:1006AC0000F018FB68B90F2C01D901200AE00022D8
:1006BC0021464FF0FF3000F0D5FA054B1C600020AE
:1006CC0000E0012010BD00BF04000020000000204D
:1006DC000800002008B5074A136843F010031360A4
:1006EC00032000F0ADFA0F20FFF7CEFFFFF750FF0D
:1006FC00002008BD00200240034A1168034B1B7800
:10070C000B441360704700BF8804002004000020D5
:10071C00014B1868704700BF880400200368D86C30
:10072C007047000030B482B00022019290F824206F
:10073C00012A00F091800346012280F824204A68A7
:10074C00062A2DD80468606B02EB8202053A4FF042
:10075C001F0C0CFA02FC20EA0C000D6805FA02F2E0
:10076C00024362630A68092A3AD91C68E06802EB02
:10077C0042021E3A4FF0070C0CFA02FC20EA0C0065
:10078C008D6805FA02F20243E2600A68103A012A07
:10079C0036D90020002283F8242002B030BC7047E8
:1007AC000C2A0ED80568286B02EB8202233A1F2410
:1007BC00944020EA04000C6804FA02F202432A6313
:1007CC00D0E70568E86A02EB8202413A1F249440A4
:1007DC0020EA04000C6804FA02F20243EA62C1E760
:1007EC001C68206902EB42024FF0070C0CFA02FC69
:1007FC0020EA0C008D6805FA02F202432261C4E77C
:10080C001A681648824205D09A6A42F020029A620F
:10081C000120BFE7906810F4000F1BD1906840F4E2
:10082C00000090600A68102A01D00020B2E70C4A40
:10083C0012680C49A1FB0212920C02EB82025200CC
:10084C00019202E0019A013A0192019A002AF9D12F
:10085C0000209FE700209DE702209EE70024014036
:10086C000000002083DE1B4330B583B000230193CE
:10087C0003689A6812F0010F33D104469A6842F06B
:10088C0001029A60184B1B68184AA2FB03239B0CAD
:10089C00019302E0019B013B0193019B002BF9D1D9
:1008AC00FFF736FF054623689B6813F0010F16D13E
:1008BC00FFF72EFF431B022BF5D923689B6813F01F
:1008CC00010FF0D1A36A43F01003A362E36A43F073
:1008DC000103E362002384F82430012002E00020AD
:1008EC0000E0002003B030BD0000002083DE1B437D
:1008FC0090F82430012B6DD010B50446012380F8FC
:10090C002430FFF7B1FF002860D1A36A23F4706391
:10091C0023F0010343F48073A36223682E4A9342AD
:10092C002CD0A26A22F48012A2625A6812F4806F50
:10093C0005D0A26A22F4405242F48052A262A26A0A
:10094C0012F4805F30D0E26A22F00602E2620022EA
:10095C0084F824206FF002021A602268536843F076
:10096C002003536023689A6802F46022B2F5602F6A
:10097C001DD09A6842F480129A602AE0A2F5806237
:10098C00526812F4702FCCD0A26A42F48012A26288
:10099C00124A526812F4806FD1D0A26A22F44052EB
:1009AC0042F48052A262CAE70022E262CFE70A4A0E
:1009BC00934204D09A6842F4A0029A6009E0A2F52E
:1009CC008062526812F4702FD3D1F3E7002384F8BD
:1009DC00243010BD02207047002801400024014043
:1009EC0038B503689A6812F0010F01D1002038BDA8
:1009FC0004469A6822F001029A60FFF789FE0546C8
:100A0C0023689B6813F0010F13D0FFF781FE431B83
:100A1C00022BF5D923689B6813F0010FF0D0A36A61
:100A2C0043F01003A362E36A43F00103E362012085
:100A3C00DDE70020DBE7000000287BD070B5044622
:100A4C00836A002B4DD02046FFF7CAFFA36A13F030
:100A5C00100369D1002867D1A26A22F4885222F0CF
:100A6C00020242F00202A2626268E1690A43217B3F
:100A7C0042EA4102A568B5F5807F02D0012D36D03F
:100A8C001D46267D012E35D02668716821F46941FA
:100A9C00294371602568AE68274931401143A9602C
:100AAC00A168B1F5807F01D0012902D12369013BF6
:100ABC001B052568E96A21F470010B43EB6223687E
:100ACC0099681E4B0B409A4225D0A36A23F012035F
:100ADC0043F01003A362E36A43F00103E3620120D5
:100AEC0027E0C36280F82430FFF76AFDABE74FF4D0
:100AFC008075C6E731B9A169013945EA413141F444
:100B0C000065C1E7A16A41F02001A162E16A41F0F0
:100B1C000101E162B8E70023E362A36A23F0030357
:100B2C0043F00103A36204E0A36A43F01003A36241
:100B3C00012070BD01207047FDF7E1FFFE0E1FFF85
:100B4C0070B582B00023019390F82430012B72D041
:100B5C000446012380F82430FFF742FF2046FFF7BC
:100B6C0083FE054628B1002384F82430284602B0C1
:100B7C0070BDA36A23F4885323F0020343F00203ED
:100B8C00A3622E4B1E68022000F070FDB6FBF0F63F
:100B9C007600019602E0019B013B0193019B002B27
:100BAC00F9D12268936843F008039360FFF7B0FD16
:100BBC00064623689A6812F0080F14D0FFF7A8FDB8
:100BCC00801B0A28F5D923689B6813F0080FF0D016
:100BDC00A36A23F0120343F01003A362002384F8EA
:100BEC0024300125C2E79A6842F004029A60FFF7AC
:100BFC008FFD064623689B6813F0040F14D0FFF793
:100C0C0087FD801B0A28F5D923689B6813F0040F15
:100C1C00F0D0A36A23F0120343F01003A362002365
:100C2C0084F824300125A1E7A36A23F0030343F0E1
:100C3C000103A36297E7022598E700BF000000209C
:100C4C00074AD36823F4E0631B041B0C000200F476
:100C5C00E060034343F0BF6343F40033D360704759
:100C6C0000ED00E000B5194BDB68C3F30223C3F1C0
:100C7C00070CBCF1040F28BF4FF0040C03F1040E59
:100C8C00BEF1060F18D9033B4FF0FF3E0EFA0CFCD9
:100C9C0021EA0C0199400EFA03F322EA03031943EB
:100CAC0000280BDB0901C9B200F1604000F561407E
:100CBC0080F800135DF804FB0023E5E700F00F005B
:100CCC000901C9B2024B1954F4E700BF00ED00E072
:100CDC0014ED00E00138B0F1807F0BD24FF0E0232F
:100CEC005861054AF02182F82310002098610722F0
:100CFC001A6170470120704700ED00E070B582B0BA
:100D0C000024A446A6E0804DAA4210D007D97F4DFE
:100D1C00AA420CD005F58035AA4208D013E0A5F5FF
:100D2C008015AA4203D005F57025AA4207D18A681E
:100D3C00002A58D0012A51D04361082403E0A5F5BC
:100D4C008015AA42F3D0BEF1FF0F4ED80646BEF175
:100D5C00FF0F4CD84FEA8C0233680F25954023EADD
:100D6C00050304FA02F2134333604B6813F0805FFF
:100D7C006ED0674B9A6942F001029A619B6903F04D
:100D8C0001030193019B4FEA9C02951C614B53F8A4
:100D9C0025600CF003039D000F23AB4026EA0306ED
:100DAC005D4B984229D003F58063984200F08E8009
:100DBC0003F58063984200F08B8003F580639842C2
:100DCC0019D004231AE0CC68BDE7CC680434BAE728
:100DDC00CC680834B7E7CC680C34B4E7036108245A
:100DEC00B1E70024AFE70424ADE7061DAFE7ACF193
:100DFC0008029200B0E7032300E00023AB4033432A
:100E0C000232444D45F822304B6813F4801F61D0F8
:100E1C00424A936843EA0E0393604B6813F4001F35
:100E2C005ED03E4AD36843EA0E03D3604B6813F49A
:100E3C00003F5BD0394A536843EA0E0353604B685A
:100E4C0013F4803F58D0354A136843EA0E031360FD
:100E5C000CF1010C0A6832FA0CF353D0012303FA9B
:100E6C000CF302EA030E33EA0202F1D14A68122AA9
:100E7C003FF649AF122A3FF666AF01A555F822F0AE
:100E8C003B0D0008D30D0008DD0D0008EF0D000828
:100E9C00530D0008530D0008530D0008530D0008A6
:100EAC00530D0008530D0008530D0008530D000896
:100EBC00530D0008530D0008530D0008530D000886
:100ECC00530D0008D70D0008E30D0008012395E72A
:100EDC00022393E7114A936823EA0E0393609CE77D
:100EEC000E4AD36823EA0E03D3609FE70B4A53687C
:100EFC0023EA0E035360A2E7084A136823EA0E03A1
:100F0C001360A5E702B070BD000022100000311084
:100F1C0000100240000001400008014000040140A4
:100F2C000AB10161704709040161704782B0084B36
:100F3C001B68084AA2FB03235B0A00FB03F3019323
:100F4C0000BF019B5A1E0192002BF9D102B07047D1
:100F5C0000000020D34D6210002800F0F18170B524
:100F6C0082B00446036813F0010F2CD0994B5B68D8
:100F7C0003F00C03042B1DD0964B5B6803F00C03A1
:100F8C00082B12D06368B3F5803F41D0002B55D1AC
:100F9C0003F1804303F504331A6822F480321A609B
:100FAC001A6822F480221A6037E08A4B5B6813F4CB
:100FBC00803FE7D0874B1B6813F4003F03D0636876
:100FCC00002B00F0BF81236813F0020F75D0814B0A
:100FDC005B6813F00C0F5FD07E4B5B6803F00C0367
:100FEC00082B54D02369002B00F08A807A4B012205
:100FFC001A60FFF78DFB0546764B1B6813F0020F4A
:10100C0075D1FFF785FB401B0228F5D903209EE123
:10101C00704A136843F480331360636843B3FFF77B
:10102C0077FB05466B4B1B6813F4003FCBD1FFF7E6
:10103C006FFB401B6428F5D9032088E1B3F5A02F82
:10104C0009D0644B1A6822F480321A601A6822F4B0
:10105C0080221A60E1E703F18043A3F53C331A6860
:10106C0042F480221A601A6842F480321A60D4E783
:10107C00FFF74EFB0546574B1B6813F4003FA2D0FD
:10108C00FFF746FB401B6428F5D903205FE1514B69
:10109C005B6813F4803FA5D14E4B1B6813F0020F15
:1010AC0003D02369012B40F04F814A4A136823F087
:1010BC00F803616943EAC1031360236813F0080F56
:1010CC0033D0A369002B5CD0434B0122C3F880249E
:1010DC00FFF71EFB05463F4B5B6A13F0020F21D155
:1010EC00FFF716FB401B0228F5D903202FE1394AE4
:1010FC00136823F0F803616943EAC1031360DCE76A
:10110C00354B00221A60FFF703FB0546314B1B6879
:10111C0013F0020FD1D0FFF7FBFA401B0228F5D9D0
:10112C00032014E10120FFF701FF236813F0040FE3
:10113C0000F09680274BDB6913F0805F34D1254B90
:10114C00DA6942F08052DA61DB6903F08053019373
:10115C00019B0125214B1B6813F4807F26D0E3688B
:10116C00012B3DD0002B53D103F1804303F5043305
:10117C001A6A22F001021A621A6A22F004021A6236
:10118C0033E0154B0022C3F88024FFF7C1FA054663
:10119C00104B5B6A13F0020FC7D0FFF7B9FA401B74
:1011AC000228F5D90320D2E00025D3E70B4A1368B7
:1011BC0043F480731360FFF7ABFA0646074B1B68CA
:1011CC0013F4807FCBD1FFF7A3FA801B6428F5D9E9
:1011DC000320BCE0001002400000424200700040BE
:1011EC005F4A136A43F001031362E36833B3FFF7FA
:1011FC008FFA06465A4B1B6A13F0020F2FD1FFF7DA
:10120C0087FA801B41F288339842F3D903209EE081
:10121C00052B09D0524B1A6A22F001021A621A6A83
:10122C0022F004021A62E0E74D4B1A6A42F0040203
:10123C001A621A6A42F001021A62D6E7FFF768FADC
:10124C000646474B1B6A13F0020F08D0FFF760FAF3
:10125C00801B41F288339842F3D9032077E0E5B93B
:10126C00E369002B72D03E4A526802F00C02082A45
:10127C0056D0022B17D03B4B00221A66FFF748FAC8
:10128C000446374B1B6813F0007F47D0FFF740FA3A
:10129C00001B0228F5D9032059E0314AD36923F009
:1012AC008053D361DCE72F4B00221A66FFF730FA2C
:1012BC0005462B4B1B6813F0007F06D0FFF728FA6E
:1012CC00401B0228F5D9032041E0236AB3F5803F87
:1012DC001AD023494B6823F47413226A606A0243C0
:1012EC0013434B601F4B01221A66FFF711FA044699
:1012FC001B4B1B6813F0007F0ED1FFF709FA001B84
:10130C000228F5D9032022E0154A536823F4003350
:10131C00A1680B435360DCE7002018E0002016E0C6
:10132C00012B16D00E4B5B6803F48031226A91427C
:10133C0011D103F47013626A93420ED1002006E0BF
:10134C0001207047012002E0012000E0002002B0E3
:10135C0070BD0120FBE70120F9E70120F7E700BF92
:10136C0000100240000042420F4B5B6803F00C027D
:10137C00082A01D00D487047C3F383420C49885C9E
:10138C0013F4803F0BD0084B5B68C3F34043094A0E
:10139C00D35C064A02FB00F0B0FBF3F07047064B3F
:1013AC0003FB00F0704700BF0010024000127A00EF
:1013BC003C1F00084C1F000800093D00002800F0ED
:1013CC00A08070B50D460446524B1B6803F0070312
:1013DC008B420BD24F4A136823F007030B43136065
:1013EC00136803F007038B4240F08D80236813F0E1
:1013FC00020F17D013F0040F04D0474A536843F47C
:10140C00E0635360236813F0080F04D0424A53681A
:10141C0043F460535360404A536823F0F003A168CF
:10142C000B435360236813F0010F31D06368012B19
:10143C0020D0022B25D0384A126812F0020F64D04B
:10144C0035494A6822F0030213434B60FFF760F9F9
:10145C000646314B5B6803F00C036268B3EB820FFA
:10146C0016D0FFF755F9801B41F288339842F0D91A
:10147C00032045E0284A126812F4003FE0D1012015
:10148C003EE0254A126812F0007FD9D1012037E0E6
:10149C00204B1B6803F00703AB420AD91D4A1368A3
:1014AC0023F007032B431360136803F00703AB42CD
:1014BC002DD1236813F0040F06D0174A536823F478
:1014CC00E063E1680B435360236813F0080F07D007
:1014DC00114A536823F46053216943EAC1035360F2
:1014EC00FFF742FF0C4B5B68C3F303130B4AD35C4F
:1014FC00D8400B4B18600B4B1868FFF7C5F8002051
:10150C0070BD012070470120FAE70120F8E70120A7
:10151C00F6E700BF0020024000100240241F000824
:10152C000000002008000020014B1868704700BF25
:10153C000000002008B5FFF7F7FF044B5B68C3F30E
:10154C00C223034AD35CD84008BD00BF0010024040
:10155C00341F000870B582B00446036813F0010F05
:10156C0036D03F4BDB6913F0805F49D13C4BDA69D5
:10157C0042F08052DA61DB6903F080530193019BE6
:10158C000125384B1B6813F4807F3BD0344B1B6A0E
:10159C0013F4407313D0626802F440729A420ED076
:1015AC002F4A136A23F440702F490126C1F8406476
:1015BC000026C1F84064106213F0010F36D1284A9E
:1015CC00136A23F4407361680B431362002D3ED100
:1015DC00236813F0020F06D0214A536823F44043CA
:1015EC00A1680B435360236813F0100F34D01C4ACE
:1015FC00536823F48003E1680B43536000202CE014
:10160C000025BEE7174A136843F480731360FFF795
:10161C007FF80646134B1B6813F4807FB6D1FFF797
:10162C0077F8801B6428F5D9032016E0FFF770F8D3
:10163C0006460B4B1B6A13F0020FC0D1FFF768F87C
:10164C00801B41F288339842F3D9032005E0D3691B
:10165C0023F08053D361BBE7002002B070BD00BF04
:10166C0000100240007000400000424208B5022801
:10167C004ED0102803D0012828D0002008BD2B4BB9
:10168C005A68186810F08070F8D0C2F38343284968
:10169C00C85C12F4803F15D0244B5B68C3F3404305
:1016AC00244AD25C244BB3FBF2F303FB00F01F4B38
:1016BC005B6813F4800FE1D14000204BA3FB00309A
:1016CC004008DBE71E4B03FB00F0F0E7174B1B6AEF
:1016DC0040F202321A40B2F5817F24D003F44073F9
:1016EC00B3F5007F04D0B3F5407F09D00020C5E7E7
:1016FC000E4A526A12F0020FF5D049F64040BDE78F
:10170C000A4B186810F40030B8D04FF22440B5E7FB
:10171C00FFF710FF054B5B68C3F3813301335B00AC
:10172C00B0FBF3F0AAE74FF40040A7E7001002402B
:10173C00501F0008601F000800127A00ABAAAAAA6A
:10174C0000093D0070B50D4E0D4D761BB61006D040
:10175C00002455F8043B01349847A642F9D1094EB0
:10176C00094D00F0D5F8761BB61006D0002455F8BC
:10177C00043B01349847A642F9D170BD681F00089C
:10178C00681F0008701F0008681F0008830730B529
:10179C0048D0541E002A3FD00346CAB201E0013C97
:1017AC003AD303F8012B9D07F9D1032C2DD9CDB2D7
:1017BC0045EA05250F2C45EA054536D9A4F110025A
:1017CC0022F00F0C03F1200EE6444FEA121C03F139
:1017DC00100242E9045542E9025510327245F8D123
:1017EC000CF1010214F00C0F03EB021204F00F0CBD
:1017FC0013D0ACF1040323F003030433134442F875
:10180C00045B9342FBD10CF003042CB1CAB21C4410
:10181C0003F8012B9C42FBD130BD64461346002CCF
:10182C00F4D1F9E703461446BFE71A46A446E0E7AD
:10183C00024B13B1024800F005B8704700000000DD
:10184C005D180008002301461A46184600F01AB825
:10185C0038B5084B084D5B1B9C1007D0043B1D444E
:10186C00013C55F804399847002CF9D1BDE83840B3
:10187C0000F054B8741F0008701F0008704700BFB8
:10188C00704700BF2DE9F047DFF87CA00646DAF878
:10189C00000098460F469146FFF7F0FF1B4B1B6864
:1018AC00D3F8484124B365681F2D26DC5EB96B1C48
:1018BC000235DAF80000636044F82570FFF7E0FFAA
:1018CC000020BDE8F087012304EB8501C1F8889066
:1018DC00D4F88821AB401A43022EC4F88821C1F8F1
:1018EC000881E4D1D4F88C211343C4F88C31DEE7A1
:1018FC0003F5A674C3F84841D5E7DAF80000FFF702
:10190C00BFFF4FF0FF30DCE738040020641F0008F5
:10191C00F8B500BFF8BC08BC9E467047F8B500BFD0
:08192C00F8BC08BC9E467047A0
:1019340000000000000000000000000000000000A3
:10194400000000F800000000000000333000000038
:1019540000100C06100C060000000000000000003F
:1019640040C07840C0784000043F04043F040400B1
:10197400007088FC08300000001820FF211E0000C1
:10198400F008F000E018000000211C031E211E00D6
:1019940000F00888700000001E212324192721105C
:1019A40010160E00000000000000000000000000FF
:1019B400000000E0180402000000000718204000A6
:1019C40000020418E0000000004020180700000096
:1019D400404080F0804040000202010F01020200FA
:1019E400000000F0000000000101011F01010100DE
:1019F400000000000000000080B070000000000043
:101A040000000000000000000001010101010101CB
:101A14000000000000000000003030000000000062
:101A24000000000080601804006018060100000037
:101A340000E010080810E000000F102020100F0034
:101A4400001010F8000000000020203F20200000BB
:101A54000070080808887000003028242221300013
:101A640000300888884830000018202020110E001B
:101A74000000C02010F8000000070424243F2400C4
:101A840000F80888880808000019212020110E0099
:101A940000E0108888180000000F112020110E00AB
:101AA40000380808C83808000000003F00000000A3
:101AB4000070880808887000001C222121221C0064
:101AC40000E010080810E0000000312222110F008D
:101AD400000000C0C0000000000000303000000022
:101AE4000000008000000000000080600000000092
:101AF40000008040201008000001020408102000AB
:101B040040404040404040000404040404040400F5
:101B1400000810204080000000201008040201008A
:101B2400007048080808F00000000030360100008A
:101B3400C030C828E810E0000718272423140B003D
:101B44000000C038E0000000203C230202273820B7
:101B540008F8888888700000203F202020110E009B
:101B6400C030080808083800071820202010080092
:101B740008F808080810E000203F202020100F007B
:101B840008F88888E8081000203F20202320180047
:101B940008F88888E8081000203F200003000000AF
:101BA400C03008080838000007182020221E020050
:101BB40008F808000008F808203F210101213F200F
:101BC400000808F8080800000020203F202000003A
:101BD40000000808F8080800C08080807F0000002A
:101BE40008F888C028180800203F20012638200063
:101BF40008F8080000000000203F202020203000CA
:101C040008F8F800F8F80800203F003F003F2000E3
:101C140008F830C00008F808203F200007183F00EB
:101C2400E01008080810E0000F10202020100F001A
:101C340008F808080808F000203F2101010100000D
:101C4400E01008080810E0000F18242438504F0052
:101C540008F8888888887000203F2000030C302012
:101C640000708808080838000038202121221C0050
:101C7400180808F8080818000000203F2000000099
:101C840008F808000008F808001F202020201F0082
:101C94000878880000C83808000007380E010000E2
:101CA400F80800F80008F800033C0700073C0300AC
:101CB400081868808068180820302C03032C302012
:101CC4000838C800C83808000000203F2000000081
:101CD40010080808C83808002038262120201800D9
:101CE400000000FE020202000000007F40404000AD
:101CF400000C30C000000000000000010638C000E5
:101D040000020202FE000000004040407F0000008C
:101D140000000402020204000000000000000000B1
:101D240000000000000000008080808080808080AF
:101D34000002020400000000000000000000000097
:101D440000008080808000000019242222223F208D
:101D540008F8008080000000003F112020110E00D0
:101D64000000008080800000000E1120202011005F
:101D7400000000808088F800000E112020103F2011
:101D84000000808080800000001F22222222130095
:101D9400008080F0888888180020203F20200000E0
:101DA4000000808080808000006B94949493600095
:101DB40008F8008080800000203F210000203F20A0
:101DC40000809898000000000020203F20200000A0
:101DD400000000809898000000C08080807F000090
:101DE40008F8000080808000203F24022D3020006D
:101DF400000808F8000000000020203F2020000018
:101E04008080808080808000203F20003F20003F31
:101E14008080008080800000203F210000203F203F
:101E24000000808080800000001F202020201F00F0
:101E3400808000808000000080FFA12020110E001F
:101E44000000008080808000000E112020A0FF8010
:101E5400808080008080800020203F2120000100BD
:101E64000000808080808000003324242424190012
:101E7400008080E0808000000000001F202000001F
:101E84008080000000808000001F202020103F2060
:101E9400808080000080808000010E3008060100F0
:101EA40080800080008080800F300C030C300F0095
:101EB40000808000808080000020312E0E312000C0
:101EC400808080000080808080818E7018060100F0
:101ED40000808080808080000021302C222130000E
:101EE40000000000807C020200000000003F40402F
:101EF40000000000FF00000000000000FF000000E0
:101F04000002027C800000000040403F000000000E
:101F140000060101020204040000000000000000A9
:101F24000000000000000000010203040607080985
:101F34000000000001020304020304050607080967
:101F44000A0B0C0D0E0F1010010200000203040511
:101F5400060708090A0B0C0D0E0F101001020000F1
:041F64001000002049
:081F68003D18000831010008DA
:041F70000D01000857
:101F74000024F40001000000100000000000000034
:101F840000000000FC02002064030020CC030020B9
:101F9400000000000000000000000000000000003D
:101FA400000000000000000000000000000000002D
:101FB400000000000000000000000000000000001D
:101FC400000000000000000000000000000000000D
:101FD40000000000000000000000000000000000FD
:101FE40000000000000000000000000000000000ED
:101FF40000000000000000000000000000000000DD
:1020040000000000000000000000000000000000CC
:1020140000000000000000000000000000000000BC
:1020240000000000000000000100000000000000AB
:102034000E33CDAB34126DE6ECDE05000B00000070
:10204400000000000000000000000000000000008C
:10205400000000000000000000000000000000007C
:10206400000000000000000000000000000000006C
:10207400000000000000000000000000000000005C
:0C23A40000000000000000008C0400207D
:0400000508000649A0
:00000001FF
