:020000040800F2
:1000000000500020690500084D0500084F05000854
:1000100051050008530500085505000800000000C0
:10002000000000000000000000000000570500086C
:1000300059050008000000005B0500085D05000888
:10004000B1050008B1050008B1050008B1050008B8
:10005000B1050008B1050008B1050008B1050008A8
:10006000B1050008B1050008B1050008B105000898
:10007000B1050008B1050008B1050008B105000888
:10008000B1050008B1050008B1050008B105000878
:10009000B1050008B1050008B1050008B105000868
:1000A000B1050008B1050008B1050008B105000858
:1000B000B1050008B1050008B1050008B105000848
:1000C000B1050008B1050008B1050008B105000838
:1000D000B1050008B1050008B1050008B105000828
:1000E000B1050008B1050008B105000800000000D6
:1000F0000000000000000000000000000000000000
:0C01000000000000000000005FF808F1A3
:10010C0010B5054C237833B9044B13B10448AFF345
:10011C0000800123237010BD3C040020000000006F
:10012C00FC10000808B5034B1BB103490348AFF39F
:10013C00008008BD0000000040040020FC100008F6
:10014C0010B586B0144B9A6942F008029A619B690B
:10015C0003F008030193019B002302930393049380
:10016C0005934FF4407302931123039303230593D8
:10017C000A4C02A9204600F0BFFA01224FF480710C
:10018C00204600F0CBFB01224FF40071204600F01A
:10019C00C5FB06B010BD00BF00100240000C0140B2
:1001AC0010B50D4C01224FF40071204600F0B6FB47
:1001BC0001224FF48071204600F0B0FB00224FF476
:1001CC000071204600F0AAFB00224FF480712046FB
:1001DC0000F0A4FB10BD00BF000C014010B50A4C90
:1001EC0000224FF40071204600F098FB01224FF4DE
:1001FC008071204600F092FB01224FF400712046E2
:10020C0000F08CFB10BD00BF000C014070B5064621
:10021C00002416E080222241124D32404FF400712E
:10022C00284600F07BFB01224FF48071284600F039
:10023C0075FB00224FF48071284600F06FFB0134EF
:10024C00E4B2072CE6D9074C01224FF4807120460A
:10025C0000F064FB00224FF48071204600F05EFB3E
:10026C0070BD00BF000C014010B50446FFF798FFAD
:10027C007820FFF7CBFF0020FFF7C8FF2046FFF7E1
:10028C00C5FFFFF7ABFF10BD10B50446FFF788FFA5
:10029C007820FFF7BBFF4020FFF7B8FF2046FFF7A1
:1002AC00B5FFFFF79BFF10BD10B50C4640F0B0003A
:1002BC00FFF7DAFF200940F01000FFF7D5FF04F03C
:1002CC000F00FFF7D1FF10BD38B5002509E0002065
:1002DC00FFF7DAFF0134E4B214F0800FF7D00135E8
:1002EC00EDB2072D05D800212846FFF7DDFF0024CD
:1002FC00F2E738BDF8B51546461E7600F6B24F1E2D
:10030C00FF00FFB239463046FFF7CEFF002409E06C
:10031C00A5F120030F4A02EB0313185DFFF7B4FF9E
:10032C000134E4B2072CF3D9701C3946C0B2FFF784
:10033C00BBFF00240BE0A5F1200304F108020549E2
:10034C0001EB0313985CFFF79FFF0134E4B2072C19
:10035C00F1D9F8BD14110008F8B507460E4615463C
:10036C00002406E0A119C9B23846FFF7C3FF0134D7
:10037C00E4B22A5D002AF5D1F8BD0246012002E064
:10038C0002FB00F019464B1E0029F9D17047000002
:10039C002DE9F8438146884617461E46002419E08D
:1003AC0004EB0805EDB2311B01390A20FFF7E5FF1C
:1003BC00B7FBF0F0094AA2FB0032D20802EB820232
:1003CC00A0EB42023032D2B229464846FFF792FFE8
:1003DC000134E4B2B442E3D3BDE8F883CDCCCCCC49
:1003EC0008B5002204E00133B3F57A7FFBD3013268
:1003FC00B2F57A7F01D20023F6E7FFF7A1FEAE201B
:10040C00FFF732FFD520FFF72FFF8020FFF72CFFDF
:10041C00A820FFF729FF3F20FFF726FFD320FFF787
:10042C0023FF0020FFF720FF4020FFF71DFFA12036
:10043C00FFF71AFFC820FFF717FFDA20FFF714FFAA
:10044C001220FFF711FF8120FFF70EFFCF20FFF7DF
:10045C000BFFD920FFF708FFF120FFF705FFDB208A
:10046C00FFF702FF3020FFF7FFFEA420FFF7FCFE92
:10047C00A620FFF7F9FE8D20FFF7F6FE1420FFF7FC
:10048C00F3FEAF20FFF7F0FEFFF71EFF08BD72B6BC
:10049C00FEE700B591B02822002106A800F066FD09
:1004AC000023019302930393049305930223069371
:1004BC0001230A9310230B9306A800F04BFA68B99A
:1004CC000F2301930021029103910491059101A83E
:1004DC0000F072FC20B911B05DF804FBFFF7D7FFF8
:1004EC00FFF7D5FF08B500F085F8FFF779FFFFF7A8
:1004FC00D0FF03237B2201210846FFF749FF034A63
:10050C0001210220FFF728FFFEE700BF04170008B7
:10051C0082B00A4B9A6942F001029A619A6902F020
:10052C0001020092009ADA6942F08052DA61DB69CA
:10053C0003F080530193019B02B0704700100240FE
:10054C00FEE7FEE7FEE7FEE7FEE770477047704701
:10055C0008B500F061F808BD70470000FFF7FCFF1C
:10056C000B480C490C4A002302E0D458C450043305
:10057C00C4188C42F9D3094A094C002301E01360DA
:10058C000432A242FBD300F0CDFCFFF7ABFF704767
:10059C00000000203C040020481700083C04002008
:1005AC0060040020FEE7000010B504460E4B1878DE
:1005BC004FF47A73B3FBF0F30C4A1068B0FBF3F012
:1005CC0000F086F868B90F2C01D901200AE000224E
:1005DC0021464FF0FF3000F043F8054B1C60002023
:1005EC0000E0012010BD00BF04000020000000202E
:1005FC000800002008B5074A136843F01003136085
:10060C00032000F01BF80F20FFF7CEFFFFF780FF51
:10061C00002008BD00200240034A1168034B1B78E0
:10062C000B441360704700BF5804002004000020E6
:10063C00014B1868704700BF58040020074AD36864
:10064C0023F4E0631B041B0C000200F4E060034382
:10065C0043F0BF6343F40033D360704700ED00E018
:10066C0000B5194BDB68C3F30223C3F1070CBCF1D3
:10067C00040F28BF4FF0040C03F1040EBEF1060F5B
:10068C0018D9033B4FF0FF3E0EFA0CFC21EA0C018B
:10069C0099400EFA03F322EA0303194300280BDBFB
:1006AC000901C9B200F1604000F5614080F8001307
:1006BC005DF804FB0023E5E700F00F000901C9B267
:1006CC00024B1954F4E700BF00ED00E014ED00E01C
:1006DC000138B0F1807F0BD24FF0E0235861054A0E
:1006EC00F02182F823100020986107221A617047CC
:1006FC000120704700ED00E070B582B00024A446E4
:10070C00A6E0804DAA4210D007D97F4DAA420CD04A
:10071C0005F58035AA4208D013E0A5F58015AA424C
:10072C0003D005F57025AA4207D18A68002A58D053
:10073C00012A51D04361082403E0A5F58015AA4293
:10074C00F3D0BEF1FF0F4ED80646BEF1FF0F4CD8CA
:10075C004FEA8C0233680F25954023EA050304FA0F
:10076C0002F2134333604B6813F0805F6ED0674B1B
:10077C009A6942F001029A619B6903F001030193AB
:10078C00019B4FEA9C02951C614B53F825600CF0C1
:10079C0003039D000F23AB4026EA03065D4B9842F2
:1007AC0029D003F58063984200F08E8003F58063B6
:1007BC00984200F08B8003F58063984219D0042393
:1007CC001AE0CC68BDE7CC680434BAE7CC680834CE
:1007DC00B7E7CC680C34B4E703610824B1E7002414
:1007EC00AFE70424ADE7061DAFE7ACF108029200B9
:1007FC00B0E7032300E00023AB4033430232444D07
:10080C0045F822304B6813F4801F61D0424A93683C
:10081C0043EA0E0393604B6813F4001F5ED03E4A0C
:10082C00D36843EA0E03D3604B6813F4003F5BD0EC
:10083C00394A536843EA0E0353604B6813F4803F04
:10084C0058D0354A136843EA0E0313600CF1010CBF
:10085C000A6832FA0CF353D0012303FA0CF302EAC0
:10086C00030E33EA0202F1D14A68122A3FF649AF6D
:10087C00122A3FF666AF01A555F822F0370700089B
:10088C00CF070008D9070008EB0700084F0700083E
:10089C004F0700084F0700084F0700084F070008D4
:1008AC004F0700084F0700084F0700084F070008C4
:1008BC004F0700084F0700084F0700084F070008B4
:1008CC00D3070008DF070008012395E7022393E70D
:1008DC00114A936823EA0E0393609CE70E4AD3688F
:1008EC0023EA0E03D3609FE70B4A536823EA0E03F7
:1008FC005360A2E7084A136823EA0E031360A5E7C6
:10090C0002B070BD00002210000031100010024037
:10091C000000014000080140000401400AB10161DF
:10092C00704709040161704782B0084B1B68084A84
:10093C00A2FB03235B0A00FB03F3019300BF019BA3
:10094C005A1E0192002BF9D102B070470000002012
:10095C00D34D6210002800F0F18170B582B00446CE
:10096C00036813F0010F2CD0994B5B6803F00C0358
:10097C00042B1DD0964B5B6803F00C03082B12D094
:10098C006368B3F5803F41D0002B55D103F1804310
:10099C0003F504331A6822F480321A601A6822F4C0
:1009AC0080221A6037E08A4B5B6813F4803FE7D0F3
:1009BC00874B1B6813F4003F03D06368002B00F0D7
:1009CC00BF81236813F0020F75D0814B5B6813F065
:1009DC000C0F5FD07E4B5B6803F00C03082B54D0DC
:1009EC002369002B00F08A807A4B01221A60FFF7F2
:1009FC001FFE0546764B1B6813F0020F75D1FFF7EF
:100A0C0017FE401B0228F5D903209EE1704A13689B
:100A1C0043F480331360636843B3FFF709FE054664
:100A2C006B4B1B6813F4003FCBD1FFF701FE401B4F
:100A3C006428F5D9032088E1B3F5A02F09D0644BC5
:100A4C001A6822F480321A601A6822F480221A6022
:100A5C00E1E703F18043A3F53C331A6842F48022AA
:100A6C001A601A6842F480321A60D4E7FFF7E0FD8E
:100A7C000546574B1B6813F4003FA2D0FFF7D8FD77
:100A8C00401B6428F5D903205FE1514B5B6813F4DC
:100A9C00803FA5D14E4B1B6813F0020F03D0236986
:100AAC00012B40F04F814A4A136823F0F803616927
:100ABC0043EAC1031360236813F0080F33D0A36912
:100ACC00002B5CD0434B0122C3F88024FFF7B0FD10
:100ADC0005463F4B5B6A13F0020F21D1FFF7A8FDCF
:100AEC00401B0228F5D903202FE1394A136823F063
:100AFC00F803616943EAC1031360DCE7354B00225C
:100B0C001A60FFF795FD0546314B1B6813F0020F79
:100B1C00D1D0FFF78DFD401B0228F5D9032014E13D
:100B2C000120FFF701FF236813F0040F00F09680FB
:100B3C00274BDB6913F0805F34D1254BDA6942F027
:100B4C008052DA61DB6903F080530193019B01252C
:100B5C00214B1B6813F4807F26D0E368012B3DD01A
:100B6C00002B53D103F1804303F504331A6A22F0AE
:100B7C0001021A621A6A22F004021A6233E0154B5F
:100B8C000022C3F88024FFF753FD0546104B5B6A27
:100B9C0013F0020FC7D0FFF74BFD401B0228F5D90D
:100BAC000320D2E00025D3E70B4A136843F480738B
:100BBC001360FFF73DFD0646074B1B6813F4807F5F
:100BCC00CBD1FFF735FD801B6428F5D90320BCE0A1
:100BDC000010024000004242007000405F4A136A5D
:100BEC0043F001031362E36833B3FFF721FD0646BC
:100BFC005A4B1B6A13F0020F2FD1FFF719FD801B04
:100C0C0041F288339842F3D903209EE0052B09D09A
:100C1C00524B1A6A22F001021A621A6A22F004027A
:100C2C001A62E0E74D4B1A6A42F004021A621A6A21
:100C3C0042F001021A62D6E7FFF7FAFC0646474B70
:100C4C001B6A13F0020F08D0FFF7F2FC801B41F275
:100C5C0088339842F3D9032077E0E5B9E369002B98
:100C6C0072D03E4A526802F00C02082A56D0022B6F
:100C7C0017D03B4B00221A66FFF7DAFC0446374BC1
:100C8C001B6813F0007F47D0FFF7D2FC001B022833
:100C9C00F5D9032059E0314AD36923F08053D3614D
:100CAC00DCE72F4B00221A66FFF7C2FC05462B4BE4
:100CBC001B6813F0007F06D0FFF7BAFC401B02281C
:100CCC00F5D9032041E0236AB3F5803F1AD02349BC
:100CDC004B6823F47413226A606A024313434B601B
:100CEC001F4B01221A66FFF7A3FC04461B4B1B6823
:100CFC0013F0007F0ED1FFF79BFC001B0228F5D9E7
:100D0C00032022E0154A536823F40033A1680B43F7
:100D1C005360DCE7002018E0002016E0012B16D011
:100D2C000E4B5B6803F48031226A914211D103F4BB
:100D3C007013626A93420ED1002006E001207047C6
:100D4C00012002E0012000E0002002B070BD012073
:100D5C00FBE70120F9E70120F7E700BF0010024094
:100D6C00000042420F4B5B6803F00C02082A01D0D2
:100D7C000D487047C3F383420C49885C13F4803FE1
:100D8C000BD0084B5B68C3F34043094AD35C064A5B
:100D9C0002FB00F0B0FBF3F07047064B03FB00F0D6
:100DAC00704700BF0010024000127A0024170008A0
:100DBC003417000800093D00002800F0A08070B531
:100DCC000D460446524B1B6803F007038B420BD2B3
:100DDC004F4A136823F007030B431360136803F0A7
:100DEC0007038B4240F08D80236813F0020F17D05D
:100DFC0013F0040F04D0474A536843F4E063536084
:100E0C00236813F0080F04D0424A536843F460532C
:100E1C005360404A536823F0F003A1680B435360BE
:100E2C00236813F0010F31D06368012B20D0022B03
:100E3C0025D0384A126812F0020F64D035494A683E
:100E4C0022F0030213434B60FFF7F2FB0646314BD3
:100E5C005B6803F00C036268B3EB820F16D0FFF7EC
:100E6C00E7FB801B41F288339842F0D9032045E020
:100E7C00284A126812F4003FE0D101203EE0254AD6
:100E8C00126812F0007FD9D1012037E0204B1B688B
:100E9C0003F00703AB420AD91D4A136823F007037A
:100EAC002B431360136803F00703AB422DD1236867
:100EBC0013F0040F06D0174A536823F4E063E1687B
:100ECC000B435360236813F0080F07D0114A536883
:100EDC0023F46053216943EAC1035360FFF742FFD7
:100EEC000C4B5B68C3F303130B4AD35CD8400B4B1E
:100EFC0018600B4B1868FFF757FB002070BD0120E2
:100F0C0070470120FAE70120F8E70120F6E700BF5F
:100F1C0000200240001002401417000800000020BE
:100F2C000800002070B50D4E0D4D761BB61006D086
:100F3C00002455F8043B01349847A642F9D1094ED8
:100F4C00094D00F0D5F8761BB61006D0002455F8E4
:100F5C00043B01349847A642F9D170BD3C170008F8
:100F6C003C170008441700083C170008830730B5ED
:100F7C0048D0541E002A3FD00346CAB201E0013CBF
:100F8C003AD303F8012B9D07F9D1032C2DD9CDB2FF
:100F9C0045EA05250F2C45EA054536D9A4F1100282
:100FAC0022F00F0C03F1200EE6444FEA121C03F161
:100FBC00100242E9045542E9025510327245F8D14B
:100FCC000CF1010214F00C0F03EB021204F00F0CE5
:100FDC0013D0ACF1040323F003030433134442F89D
:100FEC00045B9342FBD10CF003042CB1CAB21C4439
:100FFC0003F8012B9C42FBD130BD64461346002CF8
:10100C00F4D1F9E703461446BFE71A46A446E0E7D5
:10101C00024B13B1024800F005B870470000000005
:10102C003D100008002301461A46184600F01AB875
:10103C0038B5084B084D5B1B9C1007D0043B1D4476
:10104C00013C55F804399847002CF9D1BDE83840DB
:10105C0000F054B84817000844170008704700BF48
:10106C00704700BF2DE9F047DFF87CA00646DAF8A0
:10107C00000098460F469146FFF7F0FF1B4B1B688C
:10108C00D3F8484124B365681F2D26DC5EB96B1C70
:10109C000235DAF80000636044F82570FFF7E0FFD2
:1010AC000020BDE8F087012304EB8501C1F888908E
:1010BC00D4F88821AB401A43022EC4F88821C1F819
:1010CC000881E4D1D4F88C211343C4F88C31DEE7C9
:1010DC0003F5A674C3F84841D5E7DAF80000FFF72A
:1010EC00BFFF4FF0FF30DCE7380400203817000852
:1010FC00F8B500BFF8BC08BC9E467047F8B500BFF9
:08110C00F8BC08BC9E467047C8
:1011140000000000000000000000000000000000CB
:10112400000000F800000000000000333000000060
:1011340000100C06100C0600000000000000000067
:1011440040C07840C0784000043F04043F040400D9
:10115400007088FC08300000001820FF211E0000E9
:10116400F008F000E018000000211C031E211E00FE
:1011740000F00888700000001E2123241927211084
:1011840010160E0000000000000000000000000027
:10119400000000E0180402000000000718204000CE
:1011A40000020418E00000000040201807000000BE
:1011B400404080F0804040000202010F0102020022
:1011C400000000F0000000000101011F0101010006
:1011D400000000000000000080B07000000000006B
:1011E40000000000000000000001010101010101F4
:1011F400000000000000000000303000000000008B
:10120400000000008060180400601806010000005F
:1012140000E010080810E000000F102020100F005C
:10122400001010F8000000000020203F20200000E3
:10123400007008080888700000302824222130003B
:1012440000300888884830000018202020110E0043
:101254000000C02010F8000000070424243F2400EC
:1012640000F80888880808000019212020110E00C1
:1012740000E0108888180000000F112020110E00D3
:1012840000380808C83808000000003F00000000CB
:101294000070880808887000001C222121221C008C
:1012A40000E010080810E0000000312222110F00B5
:1012B400000000C0C000000000000030300000004A
:1012C40000000080000000000000806000000000BA
:1012D40000008040201008000001020408102000D3
:1012E400404040404040400004040404040404001E
:1012F40000081020408000000020100804020100B3
:10130400007048080808F0000000003036010000B2
:10131400C030C828E810E0000718272423140B0065
:101324000000C038E0000000203C230202273820DF
:1013340008F8888888700000203F202020110E00C3
:10134400C0300808080838000718202020100800BA
:1013540008F808080810E000203F202020100F00A3
:1013640008F88888E8081000203F2020232018006F
:1013740008F88888E8081000203F200003000000D7
:10138400C03008080838000007182020221E020078
:1013940008F808000008F808203F210101213F2037
:1013A400000808F8080800000020203F2020000062
:1013B40000000808F8080800C08080807F00000052
:1013C40008F888C028180800203F2001263820008B
:1013D40008F8080000000000203F202020203000F2
:1013E40008F8F800F8F80800203F003F003F20000C
:1013F40008F830C00008F808203F200007183F0014
:10140400E01008080810E0000F10202020100F0042
:1014140008F808080808F000203F21010101000035
:10142400E01008080810E0000F18242438504F007A
:1014340008F8888888887000203F2000030C30203A
:1014440000708808080838000038202121221C0078
:10145400180808F8080818000000203F20000000C1
:1014640008F808000008F808001F202020201F00AA
:101474000878880000C83808000007380E0100000A
:10148400F80800F80008F800033C0700073C0300D4
:10149400081868808068180820302C03032C30203A
:1014A4000838C800C83808000000203F20000000A9
:1014B40010080808C8380800203826212020180001
:1014C400000000FE020202000000007F40404000D5
:1014D400000C30C000000000000000010638C0000D
:1014E40000020202FE000000004040407F000000B5
:1014F40000000402020204000000000000000000DA
:1015040000000000000000008080808080808080D7
:1015140000020204000000000000000000000000BF
:1015240000008080808000000019242222223F20B5
:1015340008F8008080000000003F112020110E00F8
:101544000000008080800000000E11202020110087
:10155400000000808088F800000E112020103F2039
:101564000000808080800000001F222222221300BD
:10157400008080F0888888180020203F2020000008
:101584000000808080808000006B949494936000BD
:1015940008F8008080800000203F210000203F20C8
:1015A40000809898000000000020203F20200000C8
:1015B400000000809898000000C08080807F0000B8
:1015C40008F8000080808000203F24022D30200095
:1015D400000808F8000000000020203F2020000040
:1015E4008080808080808000203F20003F20003F5A
:1015F4008080008080800000203F210000203F2068
:101604000000808080800000001F202020201F0018
:10161400808000808000000080FFA12020110E0047
:101624000000008080808000000E112020A0FF8038
:10163400808080008080800020203F2120000100E5
:10164400000080808080800000332424242419003A
:10165400008080E0808000000000001F2020000047
:101664008080000000808000001F202020103F2088
:10167400808080000080808000010E300806010018
:1016840080800080008080800F300C030C300F00BD
:1016940000808000808080000020312E0E312000E8
:1016A400808080000080808080818E701806010018
:1016B40000808080808080000021302C2221300036
:1016C40000000000807C020200000000003F404057
:1016D40000000000FF00000000000000FF00000008
:1016E4000002027C800000000040403F0000000037
:1016F40000060101020204040000000000000000D2
:1017040048656C6C6F20576F726C64210000000098
:10171400000000000000000001020304060708099D
:1017240002030405060708090A0B0C0D0E0F10101E
:0817340001020000100000207A
:08173C001D1000083101000836
:041744000D0100088B
:101748000024F40001000000100000000000000068
:1017580000000000FC02002064030020CC030020ED
:101768000000000000000000000000000000000071
:101778000000000000000000000000000000000061
:101788000000000000000000000000000000000051
:101798000000000000000000000000000000000041
:1017A8000000000000000000000000000000000031
:1017B8000000000000000000000000000000000021
:1017C8000000000000000000000000000000000011
:1017D8000000000000000000000000000000000001
:1017E80000000000000000000000000000000000F1
:1017F80000000000000000000100000000000000E0
:101808000E33CDAB34126DE6ECDE05000B000000A4
:1018180000000000000000000000000000000000C0
:1018280000000000000000000000000000000000B0
:1018380000000000000000000000000000000000A0
:101848000000000000000000000000000000000090
:0C1B780000000000000000005C040020E1
:040000050800056981
:00000001FF
