:020000040800F2
:1000000000500020BD070008A1070008A307000852
:10001000A5070008A7070008A907000800000000BE
:10002000000000000000000000000000AB07000816
:10003000AD07000800000000AF070008B107000886
:10004000050800080508000805080008050800085C
:10005000050800080508000805080008050800084C
:10006000050800080508000805080008050800083C
:10007000050800080508000805080008050800082C
:10008000050800080508000805080008050800081C
:10009000050800080508000805080008050800080C
:1000A00005080008050800080508000805080008FC
:1000B00005080008050800080508000805080008EC
:1000C00005080008050800080508000805080008DC
:1000D00005080008050800080508000805080008CC
:1000E00005080008050800080508000800000000D1
:1000F0000000000000000000000000000000000000
:0C01000000000000000000005FF808F1A3
:10010C0010B5054C237833B9044B13B10448AFF345
:10011C0000800123237010BD3C040020000000006F
:10012C008C20000808B5034B1BB103490348AFF3FF
:10013C00008008BD00000000400400208C20000856
:10014C0038B50124FF2C0FD0A5B24FF47A730122DD
:10015C002946064801F0D0FA10B10134E4B2F1E7B7
:10016C00034B1D8020B238BDD120FCE75804002081
:10017C000000002010B584B0642402940193009216
:10018C0001230A460146024801F012F904B010BDE1
:10019C005804002010B584B064240294019300929A
:1001AC0001230A460146024801F050F804B010BD84
:1001BC005804002030B583B001258DF8075084B267
:1001CC002B460DF107026B212046FFF7E3FF0023BE
:1001DC008DF807302B460DF107026C212046FFF7F6
:1001EC00D9FF09238DF807302B460DF10702192191
:1001FC002046FFF7CFFF06238DF807302B460DF175
:10020C0007021A212046FFF7C5FF18238DF8073087
:10021C002B460DF107021B212046FFF7BBFF2B4697
:10022C000DF107021C212046FFF7B4FF03B030BDCF
:10023C0008B501230022752102480088FFF79AFFB8
:10024C0008BD00BF0000002010B586B0144B9A69A1
:10025C0042F008029A619B6903F008030193019B29
:10026C00002302930393049305934FF4407302937A
:10027C0011230393032305930A4C02A9204600F093
:10028C0065FB01224FF48071204600F071FC0122C5
:10029C004FF40071204600F06BFC06B010BD00BF9F
:1002AC0000100240000C014010B50D4C01224FF41F
:1002BC000071204600F05CFC01224FF48071204656
:1002CC0000F056FC00224FF40071204600F050FC68
:1002DC0000224FF48071204600F04AFC10BD00BF94
:1002EC00000C014010B50A4C00224FF4007120465E
:1002FC0000F03EFC01224FF48071204600F038FCE7
:10030C0001224FF40071204600F032FC10BD00BFFA
:10031C00000C014070B50646002416E080222241F4
:10032C00124D32404FF40071284600F021FC01229E
:10033C004FF48071284600F01BFC00224FF48071B2
:10034C00284600F015FC0134E4B2072CE6D9074C22
:10035C0001224FF48071204600F00AFC00224FF479
:10036C008071204600F004FC70BD00BF000C014001
:10037C0010B50446FFF798FF7820FFF7CBFF00205D
:10038C00FFF7C8FF2046FFF7C5FFFFF7ABFF10BD17
:10039C0010B50446FFF788FF7820FFF7BBFF40201D
:1003AC00FFF7B8FF2046FFF7B5FFFFF79BFF10BD27
:1003BC0010B50C4640F0B000FFF7DAFF200940F012
:1003CC001000FFF7D5FF04F00F00FFF7D1FF10BDB1
:1003DC0038B5002509E00020FFF7DAFF0134E4B25C
:1003EC0014F0800FF7D00135EDB2072D05D80021A0
:1003FC002846FFF7DDFF0024F2E738BDF8B51546B7
:10040C00461E7600F6B24F1EFF00FFB2394630464C
:10041C00FFF7CEFF002409E0A5F120030F4A02EB01
:10042C000313185DFFF7B4FF0134E4B2072CF3D9C2
:10043C00701C3946C0B2FFF7BBFF00240BE0A5F1DE
:10044C00200304F10802054901EB0313985CFFF744
:10045C009FFF0134E4B2072CF1D9F8BDA4200008A9
:10046C000246012002E002FB00F019464B1E002957
:10047C00F9D170472DE9F8438146884617461E4648
:10048C00002419E004EB0805EDB2311B01390A20F8
:10049C00FFF7E6FFB7FBF0F0094AA2FB0032D208E7
:1004AC0002EB8202A0EB42023032D2B2294648461D
:1004BC00FFF7A4FF0134E4B2B442E3D3BDE8F88300
:1004CC00CDCCCCCC2DE9F04180460F4616461D46CE
:1004DC00002407E0E1193732C9B24046FFF78EFF1E
:1004EC000134E4B2AC4211D2291B01391020FFF7C0
:1004FC00B7FFB6FBF0F202F00F02092AEAD8E119B5
:10050C003032C9B24046FFF779FFE9E7BDE8F08128
:10051C0008B5002204E00133B3F57A7FFBD3013236
:10052C00B2F57A7F01D20023F6E7FFF78DFEAE20FD
:10053C00FFF71EFFD520FFF71BFF8020FFF718FFEA
:10054C00A820FFF715FF3F20FFF712FFD320FFF77E
:10055C000FFF0020FFF70CFF4020FFF709FFA12041
:10056C00FFF706FFC820FFF703FFDA20FFF700FFB5
:10057C001220FFF7FDFE8120FFF7FAFECF20FFF7D8
:10058C00F7FED920FFF7F4FEF120FFF7F1FEDB2098
:10059C00FFF7EEFE3020FFF7EBFEA420FFF7E8FE9E
:1005AC00A620FFF7E5FE8D20FFF7E2FE1420FFF7F3
:1005BC00DFFEAF20FFF7DCFEFFF70AFF08BD0000EF
:1005CC0084B00F4B9A6942F020029A619A6902F04A
:1005DC0020020192019A9A6942F008029A619A6982
:1005EC0002F008020292029A9A6942F004029A619D
:1005FC009B6903F004030393039B04B0704700BF93
:10060C000010024072B6FEE708B50A480A4B0360B8
:10061C000A4B436000238360C3604FF48042026145
:10062C0043618361C361036200F032FD00B908BD10
:10063C00FFF7E8FF5804002000580040A086010096
:10064C0000B591B02822002106A801F057FC002328
:10065C0001930293039304930593022306930123BE
:10066C000A9310230B9306A801F026F968B90F23FF
:10067C0001930021029103910491059101A801F0CD
:10068C004DFB20B911B05DF804FBFFF7BBFFFFF782
:10069C00B9FF000000B583B000F0D6F8FFF738FFC3
:1006AC00FFF7CEFFFFF78CFFFFF7AEFF0E4BDA69BB
:1006BC0042F48002DA61DB6903F480030193019B4D
:1006CC00FFF73EFDFFF776FD0A2368220121022089
:1006DC00FFF7F8FEFFF7ACFD02460A23012108469E
:1006EC00FFF7C8FEF6E700BF0010024082B00E4BC9
:1006FC009A6942F001029A619A6902F00102009231
:10070C00009ADA6942F08052DA61DB6903F08053B7
:10071C000193019B054A536823F0E06343F0007397
:10072C00536002B0704700BF00100240000001404F
:10073C0010B586B0002302930393049305930268CB
:10074C00114B9A4201D006B010BD104CA36943F076
:10075C000803A361A36903F008030093009B4FF403
:10076C0040630293122303930323059302A90848C1
:10077C0000F0ECF8E36943F48003E361E36903F40C
:10078C0080030193019BDEE70058004000100240FB
:10079C00000C0140FEE7FEE7FEE7FEE7FEE77047D0
:1007AC007047704708B500F061F808BD704700004D
:1007BC00FFF7FCFF0B480C490C4A002302E0D4580D
:1007CC00C4500433C4188C42F9D3094A094C002391
:1007DC0001E013600432A242FBD301F06BFBFFF784
:1007EC0059FF7047000000203C040020D026000870
:1007FC003C040020B4040020FEE7000010B50446C1
:10080C000E4B18784FF47A73B3FBF0F30C4A106864
:10081C00B0FBF3F000F086F868B90F2C01D9012079
:10082C000AE0002221464FF0FF3000F043F8054B60
:10083C001C60002000E0012010BD00BF080000205B
:10084C00040000200C00002008B5074A136843F090
:10085C0010031360032000F01BF80F20FFF7CEFFEE
:10086C00FFF744FF002008BD00200240034A116836
:10087C00034B1B780B441360704700BFAC04002083
:10088C0008000020014B1868704700BFAC04002022
:10089C00074AD36823F4E0631B041B0C000200F42A
:1008AC00E060034343F0BF6343F40033D36070470D
:1008BC0000ED00E000B5194BDB68C3F30223C3F174
:1008CC00070CBCF1040F28BF4FF0040C03F1040E0D
:1008DC00BEF1060F18D9033B4FF0FF3E0EFA0CFC8D
:1008EC0021EA0C0199400EFA03F322EA030319439F
:1008FC0000280BDB0901C9B200F1604000F5614032
:10090C0080F800135DF804FB0023E5E700F00F000E
:10091C000901C9B2024B1954F4E700BF00ED00E025
:10092C0014ED00E00138B0F1807F0BD24FF0E023E2
:10093C005861054AF02182F82310002098610722A3
:10094C001A6170470120704700ED00E070B582B06D
:10095C000024A446A6E0804DAA4210D007D97F4DB2
:10096C00AA420CD005F58035AA4208D013E0A5F5B3
:10097C008015AA4203D005F57025AA4207D18A68D2
:10098C00002A58D0012A51D04361082403E0A5F570
:10099C008015AA42F3D0BEF1FF0F4ED80646BEF129
:1009AC00FF0F4CD84FEA8C0233680F25954023EA91
:1009BC00050304FA02F2134333604B6813F0805FB3
:1009CC006ED0674B9A6942F001029A619B6903F001
:1009DC0001030193019B4FEA9C02951C614B53F858
:1009EC0025600CF003039D000F23AB4026EA0306A1
:1009FC005D4B984229D003F58063984200F08E80BD
:100A0C0003F58063984200F08B8003F58063984275
:100A1C0019D004231AE0CC68BDE7CC680434BAE7DB
:100A2C00CC680834B7E7CC680C34B4E7036108240D
:100A3C00B1E70024AFE70424ADE7061DAFE7ACF146
:100A4C0008029200B0E7032300E00023AB403343DD
:100A5C000232444D45F822304B6813F4801F61D0AC
:100A6C00424A936843EA0E0393604B6813F4001FE9
:100A7C005ED03E4AD36843EA0E03D3604B6813F44E
:100A8C00003F5BD0394A536843EA0E0353604B680E
:100A9C0013F4803F58D0354A136843EA0E031360B1
:100AAC000CF1010C0A6832FA0CF353D0012303FA4F
:100ABC000CF302EA030E33EA0202F1D14A68122A5D
:100ACC003FF649AF122A3FF666AF01A555F822F062
:100ADC008B090008230A00082D0A00083F0A0008A9
:100AEC00A3090008A3090008A3090008A30900082A
:100AFC00A3090008A3090008A3090008A30900081A
:100B0C00A3090008A3090008A3090008A309000809
:100B1C00A3090008270A0008330A0008012395E7F7
:100B2C00022393E7114A936823EA0E0393609CE730
:100B3C000E4AD36823EA0E03D3609FE70B4A53682F
:100B4C0023EA0E035360A2E7084A136823EA0E0354
:100B5C001360A5E702B070BD000022100000311038
:100B6C000010024000000140000801400004014058
:100B7C000AB10161704709040161704703685A6941
:100B8C0012F4806F01D1002070476FF480625A61BB
:100B9C0000230363202280F83D2080F83E30026C55
:100BAC0042F00402026480F83C30012070472DE9C9
:100BBC00F04106460C46174698463BE0FFF762FEAE
:100BCC00069BC01A404502D8B8F1000F32D1012D56
:100BDC0018D033689B6924EA03039BB2B3FA83F3FE
:100BEC005B099F4226D100233363202286F83D20E7
:100BFC0086F83E30326C42F02002326486F83C308B
:100C0C00012027E033685B6924EA03039BB2B3FA43
:100C1C0083F35B09E5E733685B6924EA030C1FFA8D
:100C2C008CFCBCFA8CFC4FEA5C1C674511D1B8F10A
:100C3C00FF3FC3D1C4F30745012DECD033689B694A
:100C4C0024EA030C1FFA8CFCBCFA8CFC4FEA5C1CEB
:100C5C00EBE70020BDE8F0812DE9F84305460E4690
:100C6C009046994653E01A6842F400721A602B6859
:100C7C006FF480625A6100232B63202285F83D209B
:100C8C0085F83E302A6C42F004022A6485F83C3028
:100C9C0001204AE0FFF7F6FDA0EB0900404502D821
:100CAC00B8F1000F33D1012F17D02B689B6926EABE
:100CBC0003039BB2003B18BF012343B300232B63F8
:100CCC00202285F83D2085F83E302A6C42F0200227
:100CDC002A6485F83C30012027E02B685B6926EA02
:100CEC0003039BB2003B18BF0123E6E72B689C690A
:100CFC0026EA0404A4B2003C18BF0124A4B12B685A
:100D0C005A6912F4806FAED1B8F1FF3FC2D1C6F36D
:100D1C000747012FEAD12B685C6926EA0404A4B2C8
:100D2C00003C18BF0124E9E70020BDE8F88370B54A
:100D3C0004460D46164623685B6913F0800F21D1DB
:100D4C002046FFF71BFFF8B9B5F1FF3FF3D0FFF7D3
:100D5C0099FD801BA84201D8002DECD123685B695A
:100D6C0013F0800FE7D100232363202284F83D2069
:100D7C0084F83E30226C42F02002226484F83C302D
:100D8C00012000E0002070BD0120FCE72DE9F043BC
:100D9C0085B004460D4691461F46DDF830800D9E09
:100DAC000368196841F4807119600096434600226B
:100DBC004FF00111FFF7FBFE60B9236805F0FE054B
:100DCC001D613346424626492046FFF745FF68B170
:100DDC00012008E023681B6813F4807F02D04FF4D5
:100DEC0000732364032005B0BDE8F0830023039354
:100DFC0023685A6903929B690393039B32464146CD
:100E0C002046FFF794FF30B9012F0FD123685FFA0A
:100E1C0089F61E61E7E7236C042B01D00120E2E781
:100E2C002268136843F400731360F7E723684FEAF2
:100E3C0019221A61324641462046FFF778FF20B945
:100E4C0023685FFA89F61E61CDE7236C042B01D071
:100E5C000120C8E72268136843F400731360F7E7B6
:100E6C00020001002DE9F04784B004460D461646F9
:100E7C0099460C9FDDF834800268136843F4806354
:100E8C0013600368196841F480711960CDF8008013
:100E9C003B4600224FF00111FFF789FE70B95FFA53
:100EAC0085FA236805F0FE051D6143463A46414923
:100EBC002046FFF7D1FE68B1012008E023681B68CB
:100ECC0013F4807F02D04FF400732364032004B02A
:100EDC00BDE8F0870023039323685A6903929B694A
:100EEC000393039B424639462046FFF720FF80B907
:100EFC00B9F1010F18D12368F6B21E61424639468A
:100F0C002046FFF714FF68B3236C042B24D0012078
:100F1C00DDE7236C042B01D00120D8E7226813688D
:100F2C0043F400731360F7E72368320A1A614246F0
:100F3C0039462046FFF7FBFE18B92368F6B21E614E
:100F4C00DCE7236C042B01D00120C0E72268136876
:100F5C0043F400731360F7E72268136843F40073DB
:100F6C001360D4E72268136843F480731360CDF8E0
:100F7C0000803B4600224FF001112046FFF717FE80
:100F8C0068B922684AF00103136143463A4609499D
:100F9C002046FFF761FE002899D0012097E72368CF
:100FAC001B6813F4807F02D04FF40073236403207A
:100FBC008DE700BF0200010070B504460D461646D1
:100FCC0023685B6913F0040F21D12046FFF7D6FD8F
:100FDC00F8B9B5F1FF3FF3D0FFF754FC801BA842E2
:100FEC0001D8002DECD123685B6913F0040FE7D115
:100FFC0000232363202284F83D2084F83E30226CA9
:10100C0042F02002226484F83C30012000E00020F1
:10101C0070BD0120FCE770B504460D46164614E081
:10102C006FF010025A6100232363202284F83D20C4
:10103C0084F83E30226C226484F83C30012025E098
:10104C0023685B6913F0400F10D02368586910F0C7
:10105C00400F1AD1586910F0100FE1D1FFF712FCB4
:10106C00801BA842ECD8002DEFD1E9E700232363C5
:10107C00202284F83D2084F83E30226C42F020027D
:10108C00226484F83C30012000E0002070BD000098
:10109C00002800F0CC8070B5044690F83D30002B51
:1010AC0077D0242384F83D302268136823F00103A1
:1010BC0013602268136843F40043136022681368BA
:1010CC0023F40043136000F0E5FE62685A4B9A4229
:1010DC0064D85A4B98428CBF00230123002B40F05C
:1010EC00A8805749A1FB00318B0C25686A6822F057
:1010FC003F0242EA91426A6021680A6A22F03F028A
:10110C0066684D4DAE424FD8013313430B622168D4
:10111C00CA6922F44F4222F0FF026668464B9E4297
:10112C004CD8431E7600B3FBF6F3013340F6FC704B
:10113C00034278D0C3F30B031343CB6121680B68D4
:10114C0023F0C003E269206A024313430B60216859
:10115C008B6823F4034323F0FF032269E068024306
:10116C0013438B602168CB6823F0FF036269A0698D
:10117C0002431343CB602268136843F001031360EE
:10118C0000202064202384F83D30206384F83E0046
:10119C0070BD80F83C30FFF7CBFA82E7294B9842C0
:1011AC008CBF0023012399E74FF4967505FB03F3DD
:1011BC00254DA5FB03539B090133A6E7A368BBB9D7
:1011CC00451E06EB460CB5FBFCF50135C5F30B05CE
:1011DC00B5FA85F56D0945BBC3B9013806EB460375
:1011EC00B0FBF3F30133C3F30B0343F40043A3E766
:1011FC00451E06EB860C0CEB8C0CB5FBFCF5013597
:10120C00C5F30B05B5FA85F56D09E4E7013806EB76
:10121C00860303EB8303B0FBF3F30133C3F30B033C
:10122C0043F4404388E7042386E7012384E7012045
:10123C0070470120ACE700BFA08601007F841E0030
:10124C0083DE1B43FF083D00D34D62102DE9F043B4
:10125C0083B004460F46904699460C9EFFF712FB4E
:10126C00054694F83D00C0B2202803D0022003B0FC
:10127C00BDE8F0830095192301224B492046FFF766
:10128C0096FC002840F0898094F83C30012B00F04B
:10129C008680012384F83C3023681A6812F0010F11
:1012AC0003D11A6842F001021A602268136823F411
:1012BC0000631360212384F83D30402384F83E30D2
:1012CC00002323640A9B6362BDF82C306385638D15
:1012DC002385364BE362019500964B4642463946D0
:1012EC002046FFF753FD00285BD1238D002B35D012
:1012FC002A4631462046FFF71AFD20BB626A236856
:10130C0012781A61626A531C6362218D013989B2A9
:10131C002185638D9BB2013B9BB263852368586921
:10132C0010F0040FE1D00029DFD052781A61636A03
:10133C0001336362238D013B2385638D9BB2013B9B
:10134C009BB26385D1E7236C042B01D001208EE77F
:10135C002268136843F400731360F7E72A4631469A
:10136C002046FFF729FE50B1236C042B01D001203D
:10137C007DE72268136843F400731360F7E7226873
:10138C00136843F400731360202384F83D3000236A
:10139C0084F83E3084F83C3069E7022067E702208D
:1013AC0065E7012063E700BF020010000000FFFFAB
:1013BC002DE9F04389B004460F4690469946129E9B
:1013CC0000230793FFF75EFA054694F83D00C0B280
:1013DC00202804D00227384609B0BDE8F0830095D8
:1013EC001923012281492046FFF7E1FB002840F038
:1013FC00728194F83C30012B00F06F81012384F84A
:10140C003C3023681A6812F0010F03D11A6842F0BD
:10141C0001021A602268136823F40063136022230C
:10142C0084F83D30402384F83E3000232364109B25
:10143C006362BDF844306385638D23856C4BE36236
:10144C00019500964B46424639462046FFF70AFD69
:10145C000746002840F04381238D5BB90393236832
:10146C005A6903929A690392039A1A6842F40072B9
:10147C001A60EDE0012B0FD0022B21D022681368EB
:10148C0043F4806313600023069323685A69069221
:10149C009B690693069BDBE02268136823F4806348
:1014AC00136072B60023049323685A6904929A69F4
:1014BC000492049A1A6842F400721A6062B6C7E089
:1014CC002268136843F40063136072B6002305931B
:1014DC0023685A6905929A690592059A1A6822F44A
:1014EC0080621A6062B6B3E02A4631462046FFF7A6
:1014FC0092FD002840F0F58023681A69636A1A701F
:10150C00636A01336362238D013B2385638D9BB238
:10151C00013B9BB263859BE0009533460022354925
:10152C002046FFF744FB002840F0DF802268136858
:10153C0023F48063136072B623681A69636A1A70A5
:10154C00636A01336362238D013B2385638D9BB2F8
:10155C00013B9BB26385284B1B68DB08274AA2FB27
:10156C0003231B0A03EB8303C3EBC3030793079B00
:10157C00013B0793079B002B28D023685A6912F074
:10158C00040FF4D01A6842F400721A6023681A69C6
:10159C00636A1A70636A01336362238D013B23858E
:1015AC00638D9BB2013B9BB2638562B623681A695B
:1015BC00636A1A70636A01336362238D013B23856E
:1015CC00638D9BB2013B9BB2638541E02363202278
:1015DC0084F83D2084F83E30226C42F020022264D4
:1015EC0062B684F83C300127F5E600BF020010001B
:1015FC000000FFFF040001000400002089B5F8146E
:10160C002A4631462046FFF706FD00286FD1236895
:10161C001A69636A1A70626A531C6362238D013BF8
:10162C002385638D9BB2013B9BB26385236859690B
:10163C0011F0040F0CD01B695370636A01336362A1
:10164C00238D013B2385638D9BB2013B9BB263854C
:10165C00238D002B36D0032BD2D8012B3FF444AF73
:10166C00022B7FF459AF00953346002221492046C6
:10167C00FFF79DFA002836D172B62268136843F43E
:10168C000073136023681A69636A1A70636A013302
:10169C006362238D013B2385638D9BB2013B9BB21F
:1016AC00638562B623681A69636A1A70636A0133C8
:1016BC006362238D013B2385638D9BB2013B9BB2FF
:1016CC006385C5E7202384F83D30002384F83E3041
:1016DC0084F83C307FE602277DE602277BE6012773
:1016EC0079E6012777E6012775E6012773E60127DE
:1016FC0071E600BF040001002DE9F04385B00446FB
:10170C00884691461D46FFF7BDF894F83D30DBB294
:10171C00202B03D0022005B0BDE8F08306460090D4
:10172C001923012257492046FFF741FA002840F0BF
:10173C00A08094F83C30012B00F09D80012384F8AC
:10174C003C3023681A6812F0010F03D11A6842F07A
:10175C0001021A602268136823F4006313602423C7
:10176C0084F83D3000272764474BE36240E0236850
:10177C001B6813F4807F02D04FF4007323640320A2
:10178C00C9E7A02384F83D3022685369C3F34003B2
:10179C005269C2F3802294F83DC05FFA8CFCBCF114
:1017AC00A00F09D043B93AB9FFF76CF8801BA842D7
:1017BC00E7D8002DE8D1E4E7202384F83D302368F6
:1017CC005A6912F0020F31D11A6842F400721A6091
:1017DC0023686FF480625A6100961923012229490B
:1017EC002046FFF7E4F9002849D101374F4538D29C
:1017FC002268136843F48073136000962B46002212
:10180C004FF001112046FFF7D2F90028AFD1236821
:10181C0008F0FE021A61FFF735F806462268536994
:10182C00C3F340035269C2F38022B4E71A6842F44E
:10183C0000721A600023039323685A6903929B6910
:10184C000393039B0096192301220E492046FFF7B0
:10185C00AEF990B9202384F83D30002384F83C3055
:10186C0059E7202384F83D30002384F83C300120D4
:10187C0051E702204FE702204DE701204BE7012002
:10188C0049E700BF020010000000FFFF82B0084BC8
:10189C001B68084AA2FB03235B0A00FB03F30193BA
:1018AC0000BF019B5A1E0192002BF9D102B0704768
:1018BC0004000020D34D6210002800F0F18170B5B7
:1018CC0082B00446036813F0010F2CD0994B5B686F
:1018DC0003F00C03042B1DD0964B5B6803F00C0338
:1018EC00082B12D06368B3F5803F41D0002B55D143
:1018FC0003F1804303F504331A6822F480321A6032
:10190C001A6822F480221A6037E08A4B5B6813F461
:10191C00803FE7D0874B1B6813F4003F03D063680C
:10192C00002B00F0BF81236813F0020F75D0814BA0
:10193C005B6813F00C0F5FD07E4B5B6803F00C03FD
:10194C00082B54D02369002B00F08A807A4B01229B
:10195C001A60FEF797FF0546764B1B6813F0020FD3
:10196C0075D1FEF78FFF401B0228F5D903209EE1AD
:10197C00704A136843F480331360636843B3FEF713
:10198C0081FF05466B4B1B6813F4003FCBD1FEF770
:10199C0079FF401B6428F5D9032088E1B3F5A02F0B
:1019AC0009D0644B1A6822F480321A601A6822F447
:1019BC0080221A60E1E703F18043A3F53C331A68F7
:1019CC0042F480221A601A6842F480321A60D4E71A
:1019DC00FEF758FF0546574B1B6813F4003FA2D087
:1019EC00FEF750FF401B6428F5D903205FE1514BF3
:1019FC005B6813F4803FA5D14E4B1B6813F0020FAC
:101A0C0003D02369012B40F04F814A4A136823F01D
:101A1C00F803616943EAC1031360236813F0080FEC
:101A2C0033D0A369002B5CD0434B0122C3F8802434
:101A3C00FEF728FF05463F4B5B6A13F0020F21D1DE
:101A4C00FEF720FF401B0228F5D903202FE1394A6D
:101A5C00136823F0F803616943EAC1031360DCE700
:101A6C00354B00221A60FEF70DFF0546314B1B6803
:101A7C0013F0020FD1D0FEF705FF401B0228F5D959
:101A8C00032014E10120FFF701FF236813F0040F7A
:101A9C0000F09680274BDB6913F0805F34D1254B27
:101AAC00DA6942F08052DA61DB6903F0805301930A
:101ABC00019B0125214B1B6813F4807F26D0E36822
:101ACC00012B3DD0002B53D103F1804303F504339C
:101ADC001A6A22F001021A621A6A22F004021A62CD
:101AEC0033E0154B0022C3F88024FEF7CBFE0546ED
:101AFC00104B5B6A13F0020FC7D0FEF7C3FE401BFE
:101B0C000228F5D90320D2E00025D3E70B4A13684D
:101B1C0043F480731360FEF7B5FE0646074B1B6853
:101B2C0013F4807FCBD1FEF7ADFE801B6428F5D972
:101B3C000320BCE000100240000042420070004054
:101B4C005F4A136A43F001031362E36833B3FEF791
:101B5C0099FE06465A4B1B6A13F0020F2FD1FEF763
:101B6C0091FE801B41F288339842F3D903209EE00A
:101B7C00052B09D0524B1A6A22F001021A621A6A1A
:101B8C0022F004021A62E0E74D4B1A6A42F004029A
:101B9C001A621A6A42F001021A62D6E7FEF772FE66
:101BAC000646474B1B6A13F0020F08D0FEF76AFE7D
:101BBC00801B41F288339842F3D9032077E0E5B9D2
:101BCC00E369002B72D03E4A526802F00C02082ADC
:101BDC0056D0022B17D03B4B00221A66FEF752FE52
:101BEC000446374B1B6813F0007F47D0FEF74AFEC4
:101BFC00001B0228F5D9032059E0314AD36923F0A0
:101C0C008053D361DCE72F4B00221A66FEF73AFEB5
:101C1C0005462B4B1B6813F0007F06D0FEF732FEF7
:101C2C00401B0228F5D9032041E0236AB3F5803F1D
:101C3C001AD023494B6823F47413226A606A024356
:101C4C0013434B601F4B01221A66FEF71BFE044622
:101C5C001B4B1B6813F0007F0ED1FEF713FE001B0D
:101C6C000228F5D9032022E0154A536823F40033E7
:101C7C00A1680B435360DCE7002018E0002016E05D
:101C8C00012B16D00E4B5B6803F48031226A914213
:101C9C0011D103F47013626A93420ED1002006E056
:101CAC0001207047012002E0012000E0002002B07A
:101CBC0070BD0120FBE70120F9E70120F7E700BF29
:101CCC0000100240000042420F4B5B6803F00C0214
:101CDC00082A01D00D487047C3F383420C49885C35
:101CEC0013F4803F0BD0084B5B68C3F34043094AA5
:101CFC00D35C064A02FB00F0B0FBF3F07047064BD6
:101D0C0003FB00F0704700BF0010024000127A0085
:101D1C00AC260008BC26000800093D00002800F095
:101D2C00A08070B50D460446524B1B6803F00703A8
:101D3C008B420BD24F4A136823F007030B431360FB
:101D4C00136803F007038B4240F08D80236813F077
:101D5C00020F17D013F0040F04D0474A536843F412
:101D6C00E0635360236813F0080F04D0424A5368B1
:101D7C0043F460535360404A536823F0F003A16866
:101D8C000B435360236813F0010F31D06368012BB0
:101D9C0020D0022B25D0384A126812F0020F64D0E2
:101DAC0035494A6822F0030213434B60FEF76AFD83
:101DBC000646314B5B6803F00C036268B3EB820F91
:101DCC0016D0FEF75FFD801B41F288339842F0D9A4
:101DDC00032045E0284A126812F4003FE0D10120AC
:101DEC003EE0254A126812F0007FD9D1012037E07D
:101DFC00204B1B6803F00703AB420AD91D4A13683A
:101E0C0023F007032B431360136803F00703AB4263
:101E1C002DD1236813F0040F06D0174A536823F40E
:101E2C00E063E1680B435360236813F0080F07D09D
:101E3C00114A536823F46053216943EAC103536088
:101E4C00FFF742FF0C4B5B68C3F303130B4AD35CE5
:101E5C00D8400B4B18600B4B1868FEF7CFFC0020DA
:101E6C0070BD012070470120FAE70120F8E701203E
:101E7C00F6E700BF00200240001002409426000844
:101E8C00040000200C000020014B1868704700BFB4
:101E9C000400002008B5FFF7F7FF044B5B68C3F3A1
:101EAC000223034AD35CD84008BD00BF0010024097
:101EBC00A426000870B50D4E0D4D761BB61006D03D
:101ECC00002455F8043B01349847A642F9D1094E39
:101EDC00094D00F0D5F8761BB61006D0002455F845
:101EEC00043B01349847A642F9D170BDC4260008C2
:101EFC00C4260008CC260008C4260008830730B589
:101F0C0048D0541E002A3FD00346CAB201E0013C1F
:101F1C003AD303F8012B9D07F9D1032C2DD9CDB25F
:101F2C0045EA05250F2C45EA054536D9A4F11002E2
:101F3C0022F00F0C03F1200EE6444FEA121C03F1C1
:101F4C00100242E9045542E9025510327245F8D1AB
:101F5C000CF1010214F00C0F03EB021204F00F0C45
:101F6C0013D0ACF1040323F003030433134442F8FD
:101F7C00045B9342FBD10CF003042CB1CAB21C4499
:101F8C0003F8012B9C42FBD130BD64461346002C58
:101F9C00F4D1F9E703461446BFE71A46A446E0E736
:101FAC00024B13B1024800F005B870470000000066
:101FBC00CD1F0008002301461A46184600F01AB837
:101FCC0038B5084B084D5B1B9C1007D0043B1D44D7
:101FDC00013C55F804399847002CF9D1BDE838403C
:101FEC0000F054B8D0260008CC260008704700BF7B
:101FFC00704700BF2DE9F047DFF87CA00646DAF801
:10200C00000098460F469146FFF7F0FF1B4B1B68EC
:10201C00D3F8484124B365681F2D26DC5EB96B1CD0
:10202C000235DAF80000636044F82570FFF7E0FF32
:10203C000020BDE8F087012304EB8501C1F88890EE
:10204C00D4F88821AB401A43022EC4F88821C1F879
:10205C000881E4D1D4F88C211343C4F88C31DEE729
:10206C0003F5A674C3F84841D5E7DAF80000FFF78A
:10207C00BFFF4FF0FF30DCE738040020C02600081B
:10208C00F8B500BFF8BC08BC9E467047F8B500BF59
:08209C00F8BC08BC9E46704729
:1020A400000000000000000000000000000000002C
:1020B400000000F8000000000000003330000000C1
:1020C40000100C06100C06000000000000000000C8
:1020D40040C07840C0784000043F04043F0404003A
:1020E400007088FC08300000001820FF211E00004A
:1020F400F008F000E018000000211C031E211E005F
:1021040000F00888700000001E21232419272110E4
:1021140010160E0000000000000000000000000087
:10212400000000E01804020000000007182040002E
:1021340000020418E000000000402018070000001E
:10214400404080F0804040000202010F0102020082
:10215400000000F0000000000101011F0101010066
:10216400000000000000000080B0700000000000CB
:102174000000000000000000000101010101010154
:1021840000000000000000000030300000000000EB
:1021940000000000806018040060180601000000C0
:1021A40000E010080810E000000F102020100F00BD
:1021B400001010F8000000000020203F2020000044
:1021C400007008080888700000302824222130009C
:1021D40000300888884830000018202020110E00A4
:1021E4000000C02010F8000000070424243F24004D
:1021F40000F80888880808000019212020110E0022
:1022040000E0108888180000000F112020110E0033
:1022140000380808C83808000000003F000000002B
:102224000070880808887000001C222121221C00EC
:1022340000E010080810E0000000312222110F0015
:10224400000000C0C00000000000003030000000AA
:10225400000000800000000000008060000000001A
:102264000000804020100800000102040810200033
:10227400404040404040400004040404040404007E
:102284000008102040800000002010080402010013
:10229400007048080808F000000000303601000013
:1022A400C030C828E810E0000718272423140B00C6
:1022B4000000C038E0000000203C23020227382040
:1022C40008F8888888700000203F202020110E0024
:1022D400C03008080808380007182020201008001B
:1022E40008F808080810E000203F202020100F0004
:1022F40008F88888E8081000203F202023201800D0
:1023040008F88888E8081000203F20000300000037
:10231400C03008080838000007182020221E0200D8
:1023240008F808000008F808203F210101213F2097
:10233400000808F8080800000020203F20200000C2
:1023440000000808F8080800C08080807F000000B2
:1023540008F888C028180800203F200126382000EB
:1023640008F8080000000000203F20202020300052
:1023740008F8F800F8F80800203F003F003F20006C
:1023840008F830C00008F808203F200007183F0074
:10239400E01008080810E0000F10202020100F00A3
:1023A40008F808080808F000203F21010101000096
:1023B400E01008080810E0000F18242438504F00DB
:1023C40008F8888888887000203F2000030C30209B
:1023D40000708808080838000038202121221C00D9
:1023E400180808F8080818000000203F2000000022
:1023F40008F808000008F808001F202020201F000B
:102404000878880000C83808000007380E0100006A
:10241400F80800F80008F800033C0700073C030034
:10242400081868808068180820302C03032C30209A
:102434000838C800C83808000000203F2000000009
:1024440010080808C8380800203826212020180061
:10245400000000FE020202000000007F4040400035
:10246400000C30C000000000000000010638C0006D
:1024740000020202FE000000004040407F00000015
:10248400000004020202040000000000000000003A
:102494000000000000000000808080808080808038
:1024A4000002020400000000000000000000000020
:1024B40000008080808000000019242222223F2016
:1024C40008F8008080000000003F112020110E0059
:1024D4000000008080800000000E112020201100E8
:1024E400000000808088F800000E112020103F209A
:1024F4000000808080800000001F2222222213001E
:10250400008080F0888888180020203F2020000068
:102514000000808080808000006B9494949360001D
:1025240008F8008080800000203F210000203F2028
:1025340000809898000000000020203F2020000028
:10254400000000809898000000C08080807F000018
:1025540008F8000080808000203F24022D302000F5
:10256400000808F8000000000020203F20200000A0
:102574008080808080808000203F20003F20003FBA
:102584008080008080800000203F210000203F20C8
:102594000000808080800000001F202020201F0079
:1025A400808000808000000080FFA12020110E00A8
:1025B4000000008080808000000E112020A0FF8099
:1025C400808080008080800020203F212000010046
:1025D400000080808080800000332424242419009B
:1025E400008080E0808000000000001F20200000A8
:1025F4008080000000808000001F202020103F20E9
:10260400808080000080808000010E300806010078
:1026140080800080008080800F300C030C300F001D
:1026240000808000808080000020312E0E31200048
:10263400808080000080808080818E701806010078
:1026440000808080808080000021302C2221300096
:1026540000000000807C020200000000003F4040B7
:1026640000000000FF00000000000000FF00000068
:102674000002027C800000000040403F0000000097
:102684000006010102020404000000000000000032
:10269400000000000000000001020304060708090E
:1026A40000000000010203040203040506070809F0
:1026B4000A0B0C0D0E0F1010010200001000002078
:0826C400AD1F00083101000800
:0426CC000D010008F4
:1026D000680000000024F400010000001000000069
:1026E00000000000FC02002064030020CC03002056
:1026F00000000000000000000000000000000000DA
:1027000000000000000000000000000000000000C9
:1027100000000000000000000000000000000000B9
:1027200000000000000000000000000000000000A9
:102730000000000000000000000000000000000099
:102740000000000000000000000000000000000089
:102750000000000000000000000000000000000079
:102760000000000000000000000000000000000069
:102770000000000000000000000000000000000059
:102780000000000000000000010000000000000048
:102790000E33CDAB34126DE6ECDE05000B0000000D
:1027A0000000000000000000000000000000000029
:1027B0000000000000000000000000000000000019
:1027C0000000000000000000000000000000000009
:1027D00000000000000000000000000000000000F9
:0C2B00000000000000000000B0040020F5
:04000005080007BD2B
:00000001FF
